:020000040800F2
:10000000187200209D010008892B00080D270008A8
:10001000852B0008F90200083D37000800000000A9
:10002000000000000000000000000000012F000898
:100030003504000800000000512D00082D2F000895
:10004000B7010008B7010008B7010008B7010008B0
:10005000B7010008B7010008B7010008B7010008A0
:10006000B7010008B7010008B7010008B701000890
:100070001D030008B7010008B7010008B701000818
:10008000B7010008B7010008B7010008B701000870
:10009000FD020008B7010008B7010008B701000819
:1000A000B7010008B7010008B7010008B701000850
:1000B000B7010008B7010008B7010008B701000840
:1000C000B7010008B7010008B7010008B701000830
:1000D000B7010008F9350008B70100080936000823
:1000E000B7010008B7010008B7010008B701000810
:1000F000B7010008B7010008B7010008B701000800
:10010000B7010008B7010008B7010008B7010008EF
:10011000B7010008B7010008B70100081530000852
:10012000B70100082D0300083D030008B7010008CF
:10013000B7010008B7010008B7010008B7010008BF
:100140000D030008B7010008B7010008B701000857
:10015000B70100084D0300085D030008BD36000824
:10016000B7010008B7010008B7010008B70100088F
:10017000B7010008B7010008B7010008000000003F
:10018000B7010008B7010008DFF80CD000F0A2F8B2
:1001900000480047E93A00081872002006488047E6
:1001A00006480047FEE7FEE7FEE7FEE7FEE7FEE75C
:1001B000FEE7FEE7FEE7FEE70130000889010008E0
:1001C0002DE9F05F0546002092469B46884606468C
:1001D000814640241BE0284641464746224600F01F
:1001E00069F853465A46C01A914110D31146184631
:1001F000224600F050F82D1A67EB01084F462246C0
:100200000120002100F047F817EB00094E41201EA5
:10021000A4F10104DFDC484631462A464346BDE8E6
:10022000F09F40EA01039B0703D009E008C9121FB1
:1002300008C0042AFAD203E011F8013B00F8013BA0
:10024000521EF9D27047D2B201E000F8012B491ECC
:10025000FBD270470022F6E710B513460A46044663
:100260001946FFF7F0FF204610BD30B50B4601469A
:1002700000202022012409E021FA02F59D4205D345
:1002800003FA02F5491B04FA02F52844151EA2F1EF
:100290000102F1DC30BD202A04DB203A00FA02F131
:1002A000002070479140C2F1200320FA03F3194364
:1002B00090407047202A04DB203A21FA02F0002106
:1002C000704721FA02F3D040C2F120029140084366
:1002D00019467047064C074D06E0E06840F0010300
:1002E00094E8070098471034AC42F6D3FFF750FF6C
:1002F000F05F000810600008FEE7000080B540F2E3
:100300005420C2F2000000F07DFA80BD80B540F2BA
:100310007C20C2F2000000F075FA80BD80B540F28A
:100320006430C2F2000000F02FFE80BD80B540F2C4
:10033000C430C2F2000000F027FE80BD80B540F25C
:10034000A420C2F2000000F01FFE80BD80B540F284
:100350002440C2F2000000F017FE80BD80B540F2DC
:100360000430C2F2000000F00FFE80BDD0F800C0E3
:100370006FF00F024AF6AB2352FA8CF2CAF6AA23A8
:100380000146A2FB0330000905A31B5C40F2FF30CD
:100390002CEA00005F2A88BF0430C1E916037047C9
:1003A00000061016000610168269816AB2F5005F19
:1003B00006D06AB9022912D0012914D0D1B90EE0B1
:1003C000032917D8DFE801F0020B020F0120704764
:1003D00003293CBF012070471CBF00207047C06A42
:1003E000C0F300607047C06AA0F1C070B0FA80F03E
:1003F000400970470020704782B040F61445C2F2B1
:10040000000509A62C1D1DCCB2F90220B0F902107E
:10041000B3F90230B4F902403046009405F0BCF95B
:10042000012003F085FBEDE725642C25642C256471
:100430002C25640070470000EFF3108072B600BFF7
:10044000FEE7000010B582B040F2D41CC2F2000CEE
:100450004FF4007ECCF800E04FF0000ECCE902EE45
:1004600040F29C1E0824C2F2000ECCF81040040A90
:100470008EF80100080A8EF80200100A8EF80400B7
:10048000180A8EF8060040F254208EF803108EF8F9
:1004900005208EF80730C2F2000001AB61467246BB
:1004A0008EF8004000F05CF802B010BD40F29800F9
:1004B000C2F200007047000040F2B00100EB800083
:1004C000C2F2000101EB80007047000040F204100E
:1004D000C2F200007047000040F22C10C2F200008F
:1004E0007047000080B598B181B145F6F03C013805
:1004F000C0F6000C10F801EFD3B283EA0E033CF80B
:10050000133092B2013983EA1222F3D190B280BD46
:100510004FF6FF7290B280BD61B145F6D01C013834
:10052000C0F6000C10F8013FD2B25A401CF802206D
:100530000139F7D11046704790F82020013A012A7E
:1005400004D8006800F11402002004E000F1240245
:1005500001204FF480211368194311607047000097
:1005600010B590F820E0D0F800C0AEF1010EBEF159
:10057000010FDCF808E00DD81EF0E05F10D0CEF3DC
:10058000016EBEF1030F11D100F1240101204FF4DF
:10059000000233E000F1240101204FF480222DE01D
:1005A00000F1240101204FF4001227E0012000FA9D
:1005B0000EF01860886818B14B6840EAC30001E08B
:1005C00008684005D1E9033403430CEB0E10C0F872
:1005D0008031C0F88441097D012905D100F5C2713F
:1005E0000B6843F480730B605168C0F88C1112687B
:1005F00000F5C071C0F88821002001220B681A4361
:100600000A6010BDB0B590F82020013A012A2FD819
:1006100046F20060C4F20000026842F0010202608B
:10062000026822F47C520260D1F814E0CC694A6A74
:100630000368012C43EA022202600EF01F024FF011
:10064000010303FA02F2C3696FEA020C23EA020310
:10065000C36113D02CBBC36803EA0C03C360CB682F
:100660008C8844EA034300EBCE0423640B4611E07C
:10067000416A41F4802141620120B0BDC368134347
:10068000C3600B688C8844EA034300EBCE04236408
:1006900001F10C038C681B8843EA044300EBCE0491
:1006A000636443688D6943EA0204D1F810E0096A83
:1006B000002D08BF03EA0C0444604369BEF1000F3B
:1006C00043EA020408BF03EA0C040129446102D191
:1006D000C1691143C161016821F00101016000207D
:1006E000B0BD00007047000010B590F82040013CFC
:1006F000012C0CD8D0F800C079B1DCF81040A40768
:100700000FD100F1240101204FF4001270E000F13C
:10071000240101204FF480226AE0DCF80C40A40799
:100720006AD0046804EB011CDCF8B0410CF5D87EFB
:1007300014F004049460DCF8B04119BFE40854607C
:10074000640D1460DEF80040002904F00204D46057
:10075000DCF8B44104F00F041461DCF8B441C4F3D4
:1007600007249461DCF8B4414FEA14445461DCF886
:10077000B8211A70026802EB0112D2F8B8214FEAD0
:1007800012225A70026802EB0112D2F8B8214FEA25
:1007900012429A70026802EB0112D2F8B8214FEAB5
:1007A0001262DA70026802EB0112D2F8BC211A71EF
:1007B000026802EB0112D2F8BC214FEA12225A71F0
:1007C000026802EB0112D2F8BC214FEA12429A7180
:1007D000026802EB0112D2F8BC214FEA1262DA7110
:1007E000006814BF00F1100100F10C01002020226C
:1007F0000B681A430A6010BD00F1240101204FF478
:100800000012F5E72DE9F04F81B004460068466913
:10081000D0F804908768D0F80CB0D0F810A0D0F8C9
:100820001880F10703D1002530071CD423E0F90715
:1008300010D00121BA07816009D4780700F1AA809D
:10084000380700F1B080204600F03EFB02E0204671
:1008500000F03CFB0025F80500F18480F80300F16E
:10086000AA80300707D51BF0100004D0206845F49B
:1008700000751021C160700708D51BF0080005D075
:1008800020680821C160204600F0E4F9B00706D5D1
:100890002068C068800702D0204600F0DDF97006AD
:1008A00007D51AF0100004D0206845F480651021A7
:1008B0000161B00608D51AF0080005D020680821AB
:1008C0000161204600F0CCFAF00606D520680069E8
:1008D000800702D0204600F0C5FAB00308D519F011
:1008E000100005D0206810214160204600F0BCFABD
:1008F000F00308D519F0080005D0206808214160F0
:10090000204600F0EDFA300440F18F805FEA497034
:1009100040F1888006F4807008EA102028435FEADE
:100920008871014648BF41F00201B20558BF014637
:100930005FEA48700D4648BF45F00405700558BF92
:100940000D4630056ED518F070006BD010380009D8
:10095000052862D8DFE800F0035356595C5F45F084
:1009600008055AE020684FF48071BA0581600AD406
:10097000780512D4380519D4204600F0A9FAF803F6
:100980007FF56FAF17E0204600F0A4FAF8037FF57B
:1009900068AF10E04FF400655DE705F50055F8031A
:1009A0007FF55FAF07E04FF4805554E705F58045CC
:1009B000F8037FF556AF20684FF48031BA038160A9
:1009C0000AD478030FD4380313D4204600F084FAF5
:1009D00030073FF548AF4EE7204600F07FFA30077A
:1009E0003FF541AF47E705F5004530073FF53BAF21
:1009F00041E705F5803530073FF535AF3BE745F07A
:100A000010050AE045F0200507E045F0400504E048
:100A100045F0800501E045F480752068816921F08A
:100A2000700181612068042141602DB1606A284312
:100A300060622046FFF756FE01B0BDE8F08F00006F
:100A4000B0B5C8B1044690F8200010B9204600F0B7
:100A500071F82068016841F00101016000F0AAFC12
:100A6000054600BF20684168C90707D100F0A2FC15
:100A7000401B0B28F6D312E00120B0BD016821F025
:100A80000201016000F096FC054600BF2068416845
:100A900089070DD500F08EFC401B0B28F6D3606A49
:100AA000052140F400306062012084F82010B0BDC0
:100AB000217E0268012922F0800208BF8032026094
:100AC000617E0268012922F0400208BF40320260C4
:100AD000A17E0268012922F0200208BF20320260B4
:100AE000E17E0268012922F0100218BF1032026074
:100AF000217F0268012922F0080208BF0832026043
:100B0000617F0268012922F0040208BF04320260FA
:100B1000D4E901C2D4E9033561691A432A43114378
:100B2000ACF101021143C16100200121606284F82F
:100B30002010B0BD10B586B00021CDE90411CDE97B
:100B40000211006846F60002C4F2000290420191D0
:100B500034D046F20041C4F20001884277D140F21D
:100B60000011C2F200010A6843F64000C4F202001C
:100B7000531C0B6052B900210091016841F00071D3
:100B80000160016801F0007100910099002100915D
:100B900050F8101C142441F0080140F8101C50F8C3
:100BA000100C00F00800009000980320019040F223
:100BB0000040C4F2020000F5006035E043F640005A
:100BC000C4F202000091016841F080610160016897
:100BD00001F080610091009940F20011C2F2000121
:100BE0000A68531C0B6052B900210091016841F062
:100BF00000710160016801F000710091009900210D
:100C0000009150F8101C402441F0020140F8101CE3
:100C100050F8100C00F00200009000986020019045
:100C200040F20040C4F2020002210291002103912F
:100C3000032104910921059101A900F0E7FA20465A
:100C40000521002200F056FC204600F04FFC06B0C3
:100C500010BD00007047000010B58AB003AA01ABB8
:100C600000210446FFF740FD206846F60001C4F26B
:100C70000001884241D046F20041C4F2000188429E
:100C800040F0E4800398A0F20121032900F2DE8005
:100C9000BDF804209FED701A12BA120C00EE102A53
:100CA000B8EE400A80EE010A0138C1B2890051FA5B
:100CB00080F040F2B001C2F2000131F8203021F89A
:100CC000202001EB8000BDF806100381CABA09BAE2
:100CD000BDF80830090C9FED611A418019BA9DF8E2
:100CE0000A309FED5C2A090C20EE010A8180837195
:100CF00030EE020A02EE102A75E00398B0F5007F8C
:100D000011DD40F2012188423DD040F202218842AB
:100D10003ED040F20521884240F0988040F22C10ED
:100D2000C2F2000038E0502867D0512840F08E8091
:100D3000BDF906004FF4B472504300EE100A9FED67
:100D4000441ABDF90810B8EEC00A9FED422A20EE01
:100D5000010A40F2F81030EE020AC2F200005143DC
:100D600080ED000A00EE101AB8EEC00ABDF80A3095
:100D700020EE010AB2EE041A20EE010A838080ED13
:100D8000020A0AB010BD40F20410C2F2000003E0F3
:100D900040F29800C2F20000BDF804109FED2E1A38
:100DA00009BA090C00EE101AB8EE400A80EE010AEA
:100DB0000288BDF8063001800281D9BA1ABABDF89E
:100DC00008309FED261A120C9FED222A42801ABA93
:100DD0009DF80A3020EE010A120C30EE020A02EEF3
:100DE000101A82808371B8EEC22A22EE011A80EDB9
:100DF000030A80ED041A0AB010BDBDF906004FF4D5
:100E0000B472504300EE100A9FED111ABDF908109C
:100E1000B8EEC00A9FED0F2A20EE010A40F204202E
:100E200030EE020AC2F20000514380ED000A00EEEB
:100E3000101AB8EEC00ABDF80A3020EE010AB2EE70
:100E4000041A20EE010A838080ED020A0AB010BD68
:100E500000000038000034C300F8FF450000B44330
:100E6000704700007047000070470000B0B50446AE
:100E700090F8200001281DD1022084F8200020686D
:100E8000016821F00101016000F094FA054600BFFD
:100E900020684068C00713D000F08CFA401B0B2874
:100EA000F6D3606A40F400306062052084F82000C8
:100EB0000120B0BD606A40F4002060620120B0BD36
:100EC00000206062B0BD0000704700007047000065
:100ED0007047000070470000704700007047000036
:100EE0007047000070B5866D044600F063FA94F810
:100EF0003510022925D105462068216C026822F0B0
:100F000016020260426922F08002426109B9A16CB6
:100F100019B1016821F008010160016821F00101A7
:100F2000016000BF20680068C0070ED000F042FAE0
:100F3000401B0628F6D320206065032084F8350086
:100F40000CE080206065012008E0E06D3F2101FA9F
:100F500000F0B060012084F835000020002184F802
:100F6000341070BD90F83510022909D1052180F8A0
:100F700035100068016821F0010101600020704710
:100F80008021416501207047F0B581B00446002002
:100F9000009040F26400C2F200000268D4E91660DA
:100FA00048F2B51337680821C1F64E338140394203
:100FB000A2FB03250CD0226813685B0708D51368D1
:100FC00023F004031360B160616D41F001016165BC
:100FD00001218140394208D022685269120604D5A5
:100FE000B160616D41F002016165042181403942C7
:100FF00008D022681268920704D5B160616D41F093
:101000000401616510218140394215D020680268D1
:10101000120711D5B16002680168520306D4C905F0
:1010200006D4016821F00801016001E0080342D400
:10103000216C09B120468847E16D202000FA01F2B9
:101040003A4244D020680368DB0640D5B26094F889
:1010500035300268052B1ED122F01602026042696B
:1010600022F080024261226C0AB9A26C1AB10268B5
:1010700022F0080202603F208840B060012084F81E
:101080003500216D0020002984F8340040D020462E
:10109000884701B0F0BD0168520310D4C90512D4CD
:1010A000016821F010010160012084F83500002062
:1010B00084F8340007E0A16C0029BBD1BCE7080329
:1010C00001D4616C00E0E16B09B120468847606D96
:1010D000F0B1606DC00717D0052084F83500206896
:1010E000A90A026822F00102026000BF009A0132E0
:1010F0008A42009202D80268D207F7D1012084F810
:101100003500002084F83400E16C09B1204688479E
:1011100001B0F0BD2DE9F041044600F04BF9C4B137
:101120000546022084F835000020216884F8340048
:10113000086820F00100086026683068C0070BD0FE
:1011400000F038F9401B0528F6D90321202203209E
:1011500042E00120BDE8F081306848F23F01CFF263
:101160001001251D00EA010C2ECDD4E9050E41EA3F
:101170000C01114319432943D4E90778084340EA95
:101180000E01606A3943042841EA080103D1D4E919
:101190000B231143194331607169042821F00701C1
:1011A00041EA00050CD1D4E90A1045EA010538B13D
:1011B0002046FFF7F9F818B10121402201200BE089
:1011C00020467561FFF7D2F8E16D3F2202FA01F186
:1011D0008160002201210020626584F83510BDE89D
:1011E000F0810000B0B5044600F0E4F8054640F296
:1011F0008400C2F200000078611C18BF044400BFE4
:1012000000F0D8F8401BA042FAD3B0BD2DE9F04F52
:1012100083B000F13E4202F1FF724FEAB22241F682
:1012200000470192C4F2020708224FF0010E002588
:101230004FF0000A4FF00008B84208BF07220092A2
:101240000AE000BF08F101080AF1040AB8F1100F22
:1012500005F1020500F0A4800C680EFA08FB14EA00
:101260000B09EFD04C6804F0030CACF1010EBEF199
:10127000010F11D80322876802FA05F6CA68B7433E
:10128000AA403A4382604268C4F3001722EA0B0284
:1012900007FA08F73A434260BCF1030F1CD0C2685A
:1012A00003238E6803FA05F7BA4306FA05F73A43B3
:1012B000BCF1020FC2600FD16FF0030202EA5802C4
:1012C00002440AF01C060F23176A03FA06F40B699E
:1012D000A743B3403B431362026803234F68AB400C
:1012E0009A4307F00303AB401A4317F4403F4FF013
:1012F000010E0260A6D0002243F644030292C4F21B
:1013000002031A6843F6004442F480421A601A68E5
:10131000C4F2010402F480420292029A28F003020D
:101320004FF6084B2244CFF6FF7B52F80B300AF001
:101330000C070F26BE4023EA060C019B009E072BDC
:1013400038BF1E4606FA07F747EA0C0342F80B308F
:10135000A2684B6842EA090743F60C4CDE0258BF0C
:1013600022EA0907A760C4F2010CDCF800209E0203
:1013700042EA090758BF22EA0907CCF80070626800
:101380009E0342EA090758BF22EA090767602268FC
:10139000DB0342EA090358BF22EA0903236051E74D
:1013A00003B0BDE8F08F00000069084018BF0120BD
:1013B0007047000044F61070C2F2000000687047E9
:1013C00040F2840044F61071C2F20000C2F2000143
:1013D00000780A68104408607047000080B543F642
:1013E0000040C4F20200016841F40071016001682C
:1013F00041F480610160016841F480710160032063
:1014000000F088F80F2000F005F800F04BF80020FD
:1014100080BD000010B586B00146372000220024B0
:1014200000F068F8372000F061F843F640000194BE
:10143000C4F20200016841F02001016000686946C1
:1014400000F020000190019801A800F017F900F0C9
:101450003BF94DF683614000C4F21B31A0FB010152
:101460004FF0FF3000EB914140F2145041F2004246
:10147000C2F20000C4F2000240F2E733C0E90021EA
:10148000C0E90243046100F079FB10B1012006B00D
:1014900010BD40F21450C2F2000000F0B9FB06B0DB
:1014A00010BD000080B582B0002043F640010190DD
:1014B000C4F202014A6842F480424A604A6802F477
:1014C00080420192019A00900868002240F080500A
:1014D000086008680F2100F08050009000986FF0BD
:1014E000010000F007F802B080BD000080B502F0F6
:1014F00027F980BD70B514460D46064602F030F956
:101500002946224601F042FB0146304602F030F9FE
:1015100070BD000080B502F03DF980BD2DE9F041BD
:10152000002800F08B8043F60808C4F20208044645
:10153000D8F8F8030D4600F00700884207D288F873
:10154000F853D8F8F80300F00700A84276D12068D5
:10155000810717D5410705D5D8F8001041F4E051AF
:10156000C8F80010010705D5D8F8001041F4604113
:10157000C8F80010D8F80010A26821F0F00111435B
:10158000C8F80010C0073FD1D8F8F80300F00700F2
:10159000A84207D988F8F853D8F8F80300F00700F4
:1015A000A8424BD12068410707D5D8F80010E2685F
:1015B00021F4E0511143C8F80010000708D5D8F80D
:1015C0000000216920F4604040EAC100C8F8000032
:1015D00000F09EF8D8F8001045F6B812C1F30311D8
:1015E000C0F60002515C40F2640220FA01F140F2C0
:1015F0008800C2F200000068C2F200021160FFF72A
:1016000009FF0020BDE8F0816068811E022907D231
:1016100058F8081C89015CBF0120BDE8F08110E08A
:10162000012807D158F8081C89035CBF0120BDE8D8
:10163000F08106E058F8081C890702D40120BDE8B3
:10164000F081D8F8001021F003010843C8F8000029
:10165000FFF7B0FE064641F2883700BFD8F8000019
:10166000616800F00C00B0EB810F8DD0FFF7A2FE97
:10167000801BB842F2D90320BDE8F0810F2202603E
:1016800043F60802C4F20202136803F00303436046
:10169000136803F0F0038360136803F4E053C3603E
:1016A000D2F800C04FF4E05303EADC030361D2F840
:1016B000F80300F0070008607047000040F2640083
:1016C000C2F200000068704780B5FFF7F7FF43F6ED
:1016D0000801C4F20201096845F6C812C1F382216B
:1016E000C0F60002515CC84080BD000080B5FFF725
:1016F000E5FF43F60801C4F20201096845F6C81285
:10170000C1F34231C0F60002515CC84080BD000008
:1017100010B543F60404C4F20204606800F00C0043
:1017200008280AD0042819BF42F20040C0F2F40091
:1017300041F60030C0F2B70010BD20682168236870
:10174000490241F60031C0F2B70100F03F02C3F395
:1017500088105CBF42F20041C0F2F401A1FB00011D
:101760000023FEF72DFD21680222C1F3014102EBA7
:101770004101B0FBF1F010BD2DE9F04182B000282D
:1017800000F0A1800446007843F60006C007C4F2CA
:10179000020643D0B06800F00C00042805D1306880
:1017A00080033BD56068C8BB8DE0B06800F00C00DA
:1017B000082802D170684002F1D46568B5F5A02F01
:1017C0000AD0B5F5803F0BD0306820F4803030600F
:1017D000306820F4802006E0306840F480203060DB
:1017E000306840F480303060FFF7E4FD002D05469E
:1017F00011D000BF3068800310D4FFF7DBFD401B21
:101800006428F7D920E100BFFFF7D4FD401B64280E
:101810004FF0030054D830688003F5D42078800757
:101820001AD5B06810F00C0F09D0B06800F00C00A9
:10183000082840F088807068400200F18480306899
:10184000800702D5E06801283DD13068216920F089
:10185000F80040EAC10030602078000737D42078D3
:1018600040074AD4A56955B3B06800F00C000828B9
:1018700040F09C80012D26D07068E16900F4800260
:101880008A4220D1216A00F03F028A421BD147F6EA
:10189000C071626A0140B1EB821F14D1A16A4FF698
:1018A000FF73C903994300F44032A1F580318A42A5
:1018B00009D1E16A00F07060B0EB016F03D1002044
:1018C00002B0BDE8F081012002B0BDE8F08160699E
:1018D000002840F20000C4F2472056D00121C0F891
:1018E000801EFFF767FD0546706F8007B7D4FFF7CE
:1018F00061FD401B0228F7D9A6E0306C10F080583B
:101900000AD100200190306C40F080503064306C7F
:1019100000F080500190019847F20007C4F20007E0
:101920003868C00524D4386840F480703860FFF708
:1019300041FD05463868C0051AD4FFF73BFD401B42
:101940000228F7D980E0E068002851D00020C4F2D6
:10195000472001210160FFF72DFD05463068800713
:101960003FF573AFFFF726FD401B0228F6D96BE069
:10197000A568052D50D0012D52D0306F20F0010008
:101980003067306F20F004004DE00021C0F8801E69
:10199000FFF710FD054600BF706F80077FF55FAF52
:1019A000FFF708FD401B0228F6D94DE00027C4F2DE
:1019B000472700203866FFF7FDFC022D05460BD1B6
:1019C0003068800158D5FFF7F5FC401B02284FF026
:1019D0000300F5D974E700BF306880017FF56FAF71
:1019E000FFF7E8FC401B02284FF00300F4D967E73B
:1019F0000020C4F2472000210160FFF7DBFC054610
:101A0000306880077FF528AFFFF7D4FC401B022821
:101A10004FF00300F4D953E7306F40F00400306713
:101A2000306F40F001003067FFF7C4FC002D054621
:101A300041F2883714D000BF306F800713D4FFF70E
:101A4000B9FC401BB842F7D9032002B0BDE8F081D1
:101A5000FFF7B0FC401BB8424FF003003FF630AF39
:101A6000306F8007F4D4B8F1000F7FF4FBAE306C18
:101A700020F080503064F5E604F11C052FCD0843BA
:101A800040EA8210D9034FF6FF729143A1F58031ED
:101A900040EA05600843706001203866FFF78AFC61
:101AA000044600BF306880013FF509AFFFF782FCB4
:101AB000001B02284FF00300F4D901E77047000033
:101AC0007047000010B590F83C20012A4FF0020248
:101AD00052D0012380F83C3080F83D200268D2F8D3
:101AE00004E0D2F808C00C682EF07003234341F2E2
:101AF000FF74C4F20004A24253600DDC40F2FF7395
:101B0000C4F200039A4215DCB2F1804F29D040F2B2
:101B10000043C4F2000322E040F2FF33C4F20103A9
:101B20009A4212DC41F60003C4F200039A4218D034
:101B3000002312E040F60003C4F200039A4210D0E2
:101B400040F60043C4F2000309E044F20003C4F28B
:101B500001039A4205D040F20043C4F201039A42C5
:101B600004D149682CF080031943916001210022BF
:101B700080F83D1080F83C20104610BD002804BFBE
:101B80000120704710B5044690F83D0028B90020A8
:101B900084F83C00204600F01FF8022084F83D0045
:101BA0002068211D01F03EFA012084F8460084F8E7
:101BB0003E0084F83F0084F8400084F8410084F837
:101BC000420084F8430084F8440084F8450084F817
:101BD0003D00002010BD000081B0006844F20041CB
:101BE000C4F20101884201D001B07047002000908A
:101BF00043F64400C4F20200016841F40031016080
:101C0000006800F400300090009801B070470000B8
:101C100090F83D1001291CBF01207047022180F877
:101C20003D10006841F2FF72C168C4F200029042A8
:101C300041F00101C1600DDC40F2FF71C4F200010E
:101C4000884215DCB0F1804F29D040F20041C4F247
:101C5000000122E040F2FF31C4F20101884212DCAF
:101C600041F60001C4F20001884218D0002112E0C0
:101C700040F60001C4F20001884210D040F6004155
:101C8000C4F2000109E044F20001C4F201018842FB
:101C900005D040F20041C4F20101884206D18168BA
:101CA00001F00701062904BF00207047016841F0D8
:101CB00001010160002070477047000010B5044624
:101CC00000680169890744BFC1685FEA817138D43F
:101CD00020680169490744BFC1685FEA41713CD48B
:101CE00020680169090744BFC1685FEA017141D4F6
:101CF00020680169C90644BFC1685FEAC16145D473
:101D000020680169C9071CBFC1685FEAC1714AD177
:101D100020680169090644BFC1685FEA016149D4CE
:101D200020680169490644BFC1685FEA416148D43F
:101D300020680169890644BFC1685FEA816147D4B0
:101D400010BD6FF0020101610121217780698007D8
:101D500045D02046FFF7B0FF47E06FF00401016176
:101D600002212177806910F4407F41D02046FFF79F
:101D7000A3FF43E06FF00801016104212177C069EE
:101D800080073ED02046FFF797FF40E06FF010013C
:101D9000016108212177C06910F4407F3AD02046C4
:101DA000FFF78AFF3CE06FF001010161204600F07F
:101DB0007FF9ADE76FF0800101612046FFF77EFEFD
:101DC000AEE76FF040010161204600F07DF9AFE71A
:101DD0006FF0200101612046FFF772FE10BD204622
:101DE00000F050F8204600F0E5F8002020776FE77B
:101DF000204600F047F8204600F0DCF8002020776D
:101E00006EE7204600F03EF8204600F0D3F80020B0
:101E100020776DE7204600F035F8204600F0CAF83C
:101E2000002020776CE7000080B586B00022059284
:101E3000CDE9032240F600410068C4F20001884267
:101E40000292019201D006B080BD43F630000092AC
:101E5000C4F20200036843F080030360006800F0EE
:101E60008000009000984FF4E05001900220CDE9EE
:101E70000202CDE9042001F5043001A9FFF7C6F9FB
:101E800006B080BD70470000B0B5044690F83C0035
:101E9000012804BF0220B0BD0D464FEAB201012067
:101EA000032984F83C0037D8DFE801F0020A122247
:101EB0002068294601F05AF9206850F8181F0EE0F2
:101EC0002068294601F082F9206850F8181F16E0B2
:101ED0002068294601F0AEF9206850F81C1F41F037
:101EE00008010160016821F00401016029690FE027
:101EF0002068294601F0D2F9206850F81C1F41F4EF
:101F000000610160016821F48061016029690902B2
:101F10000268114301600020002184F83C10B0BD2C
:101F2000002804BF0120704710B5044690F83D001A
:101F300028B9002084F83C00204600F01FF8022059
:101F400084F83D002068211D01F06CF8012084F820
:101F5000460084F83E0084F83F0084F8400084F88E
:101F6000410084F8420084F8430084F8440084F877
:101F7000450084F83D00002010BD000081B00068DD
:101F800040F60041C4F20001884201D001B0704720
:101F90000020009043F64000C4F20200016841F0C6
:101FA00008010160006800F008000090009801B08E
:101FB000704700007047000010B5044641B1082981
:101FC00009D0042914BF04F1410004F13F0004E0EA
:101FD00004F13E0001E004F14000007801281CBF3C
:101FE000012010BD022041B1082909D0042914BFE5
:101FF00084F8410084F83F0004E084F83E0001E0EA
:1020000084F840002068012201F09EF8206840F228
:10201000004140F48062C4F201018A4203D1426C63
:1020200042F40042426441F2FF72C4F20002904264
:102030000DDC40F2FF71C4F20001884217DCB0F100
:10204000804F27D040F20041C4F2000120E040F26E
:10205000FF32C4F20102904214DC41F60001C4F2E6
:102060000001884216D00021C4F2010110E040F6C0
:102070000001C4F2000188420CD040F60041C4F2D5
:10208000000105E044F20002C4F20102904201D0D6
:10209000884206D1816801F00701062904BF0020AB
:1020A00010BD016841F001010160002010BD000079
:1020B00080B5006841F20041C4F20001884208BFC7
:1020C000FFF77EF980BD00007047000070470000F8
:1020D00070470000B0B582B0036804461868D9683C
:1020E0005A6900F02F05202D01F0200505D125B1FA
:1020F000204601F037F902B0B0BD5FEA007C1EBF98
:1021000002F0010E01F4907212EB0E0248D1226B24
:102110000840C1063BD5012A39D10020019018683A
:1021200001905868019001985869400640D4A08DEC
:10213000E18DE28D002A1CBF401A5FEA004101D107
:1021400002B0B0BD216851E8031F226821F49071EC
:1021500042E80313002BF5D1216851E8051F2268DE
:1021600021F0010142E80513002BF5D1202184F86C
:102170003E100021216300BF216851E8031F22683F
:1021800021F0100142E80313002BF5D152E00106C3
:1021900056D44006D4D5204601F0D8F802B0B0BDE0
:1021A000C20718BF11F480724FD1420753D459E0CF
:1021B000A06B016849688AB2002AC1D0A38D9A42F7
:1021C000BED2E185C069B0F5807F30D0206850E88C
:1021D000030F216820F4807041E80302002AF5D142
:1021E000206850E8050F216820F0010041E8050251
:1021F000002AF5D1206850E8050F216820F0400042
:1022000041E80502002AF5D1202084F83E00002094
:10221000206300BF206850E8030F216820F0100001
:1022200041E80302002AF5D1A06BFEF75BFEA08D0A
:10223000E18D401A81B22046FFF748FF02B0B0BDE1
:10224000204601F05FF902B0B0BD226C42F00102FD
:102250002264420706D5BEF1000F03D0226C42F083
:1022600002022264820706D5BEF1000F03D0226C61
:1022700042F004022264BCF1000F06D55EEA0502BA
:1022800003D0226C42F008022264226C002A3FF440
:1022900057AF0840800602D5204601F063F8206859
:1022A0004069216C00F0400001F00801401827D07F
:1022B000204601F023F82068406940061BD500BF86
:1022C000206850E8050F216820F0400041E8050231
:1022D000002AF5D1A06B70B143F2ED21C0F60001E8
:1022E0000165FEF73FFE00283FF42AAFA06B016DA9
:1022F000884702B0B0BD2046FFF7EAFE02B0B0BD8D
:102300002046FFF7E5FE0020206402B0B0BD0000CB
:10231000002804BF0120704710B5044690F83D0026
:1023200028B9002084F83C00204600F021F8242041
:1023300084F83D002068C16821F40051C160204646
:1023400001F072F82068016921F49041016141694E
:1023500021F02A014161C16841F40051C1600020AF
:102360002021206484F83D1084F83E1010BD000048
:102370002DE9F04F87B00026CDE90566CDE903666B
:102380000446006844F60001C4F200018842029647
:1023900000F0918041F20041C4F20101884200F056
:1023A000D58041F20001C4F20101884240F0408131
:1023B000002743F630000197C4F20200416900256E
:1023C00041F0100141614169C4F2020501F01001C0
:1023D000019101990197016802AE41F0020101608B
:1023E000016846F2280801F0020101910199019764
:1023F00001684FF0020941F00101016000684FF0EF
:10240000030A00F0010001900198802002904FF033
:10241000070B05F580603146C4F20208CDE9039749
:10242000CDF814A0CDF818B0FEF7F0FE4FF4007010
:10243000CDE9020904A880E8800C28463146FEF761
:10244000E5FE40F2043508F59260C2F200054FF057
:1024500000664021C5E9000605F108004FF48069D7
:1024600080E882022846C5E90577C5E907776F62EB
:10247000FEF750FE002818BFFDF7DEFF6563AC6372
:1024800040F2A42508F58360C2F2000585E8C1008A
:102490002846C5E90379C5E90577C5E907776F627D
:1024A000FEF738FE002818BFFDF7C6FFA56305F14B
:1024B00038002525B3E043F630000196C4F202004F
:1024C000016941F480210161016901F480210191D8
:1024D00001990196016841F004010160006802A9B8
:1024E00000F00400019001984FF440600290022037
:1024F000CDE9030603200590072006900020C4F2D2
:10250000020000F50060FEF781FE40F2643546F2FD
:102510002800C2F20005C4F202004FF000614FF43F
:10252000806285E843002846C5E90362C5E905667F
:10253000C5E907666E62FEF7EDFD002818BFFDF7DE
:102540007BFFA56305F13800272568E0002643F6E8
:1025500030000196C4F20200416946F2280841F0B9
:10256000200141614169C4F2020801F0200101919A
:1025700001990196016841F040010160006802A9DB
:1025800000F04000019001984FF484400290022036
:10259000CDE9030603200590082006900020C4F230
:1025A000020000F5C050FEF731FE40F2C43508F5D8
:1025B0008060C2F200054FF020674FF48069C5E9E2
:1025C00000072846C5E90266C5E90496C5E906661E
:1025D000C5E90866FEF79EFD002818BFFDF72CFF31
:1025E000A563AC6340F2244508F58F60C2F2000594
:1025F0004021C5E9000705F1080080E842022846AD
:10260000C5E90566C5E907666E62FEF783FD002829
:1026100018BFFDF711FF656305F138004725046019
:10262000284605210022FEF765FF2846FEF75EFFDB
:1026300007B0BDE8F08F0000704700002DE9F043BF
:1026400081B0044690F83D0020280BD10E460029A9
:102650004FF0010055D01746002A52D094F83C00A4
:10266000012803D1022001B0BDE8F083012084F8E5
:102670003C004FF0000921201D46C4F8409084F82A
:102680003D00FEF797FEA784E784A1680746B1F5F1
:10269000805F07D1206900281CBF30464E46B046F7
:1026A000064601E04FF0000884F83C9007E000BFC8
:1026B00016F8010B21684860E08C0138E084E08C5A
:1026C00080B1204680213A462B4600F045FF80B974
:1026D000002EEDD138F8020B21686FF35F204860BF
:1026E0000026E9E7204640213A462B4600F034FF19
:1026F00018B1032001B0BDE8F083202084F83D002C
:10270000002001B0BDE8F08370470000FEE7000044
:1027100080B540F2542046F20041C2F20000C4F2FB
:1027200000010322002380E80E0000F10C014FF4A9
:10273000102C4FF4001E81E8085083618383FEF75C
:102740007FF9002818BFFDF777FE80BD80B540F205
:102750007C2046F60001C2F20000C4F20001032210
:10276000002380E80E0000F10C014FF4102C4FF410
:10277000001E81E8085083618383FEF761F9002819
:1027800018BFFDF759FE80BD80B582B0002043F62A
:1027900030010190C4F202010A6842F480020A602A
:1027A0000A6802F480020192019A009008680022EF
:1027B00040F4001008600868052100F40010009043
:1027C00000980C20FEF796FE0C20FEF78FFE3920B5
:1027D00005210022FEF78EFE3920FEF787FE3A2003
:1027E00005210022FEF786FE3A20FEF77FFE4520F7
:1027F00005210022FEF77EFE4520FEF777FE4620EB
:1028000005210022FEF776FE4620FEF76FFE02B09D
:1028100080BD000010B5A4B045F66410C0F60000FD
:1028200090E80E50D0E905401D911E921F93CDF8FF
:1028300080C0CDF884E0CDE922401DA8002101F040
:1028400087F940F2F411C2F20001086045F69C10CD
:10285000C0F6000090E81E50806916911C9016A8E2
:102860000021179218931994CDF868C0CDF86CE048
:1028700001F06EF940F6EC61C2F20001086045F625
:102880002C10C0F6000090E81E5080690F91159042
:102890000FA80021109211931294CDF84CC0CDF8DE
:1028A00050E001F055F940F2AC01C2F200010860BD
:1028B00045F68010C0F6000090E81E50806908912F
:1028C0000E9008A8002109920A930B94CDF830C00D
:1028D000CDF834E001F03CF940F2F061C2F20001C1
:1028E000086045F64810C0F6000090E81E50806968
:1028F0000191079001A80021029203930494CDF85E
:1029000014C0CDF818E001F023F940F21811C2F21A
:102910000001086024B010BD80B586B0002043F6E9
:1029200030010590CDE90300CDE901000090C4F22B
:1029300002010A6842F002020A600A6802F002021A
:102940000092009A00900A6842F040020A600A6809
:1029500002F040020092009A00900A6842F00102E0
:102960000A600A6802F001020092009A00900A6868
:1029700042F008020A600A6802F008020092009A17
:1029800000900A6842F004020A600A6802F0040239
:102990000092009A00900A6842F480720A600A6805
:1029A00002F480720092009A00900A6842F080025D
:1029B0000A60096801F0800100910099C021CDE909
:1029C00001100120039042F20000C4F2020001A9AC
:1029D000FEF71CFC06B080BD80B540F2844044F296
:1029E0000041C2F20000C4F20101002241F287332B
:1029F000C0E90012C0E9022302618261FFF7BEF85C
:102A0000002818BFFDF718FD80BD000010B58AB082
:102A100040F2CC4040F600410024C2F20000C4F273
:102A200000014FF0FF320994CDE90744CDE9054498
:102A3000CDE90344CDE90144C0E90014C0E90242F4
:102A400004618461FFF76CFA002818BFFDF7F4FCFD
:102A500040F2CC40C2F2000008A9CDE90844FFF7DB
:102A600031F8002818BFFDF7E7FC60200190002036
:102A7000CDE90200059040F2CC40C2F2000001A96D
:102A80000022FFF701FA002818BFFDF7D5FC40F23D
:102A9000CC40C2F2000001A90422FFF7F5F900289A
:102AA00018BFFDF7C9FC40F2CC40C2F2000001A9FA
:102AB0000822FFF7E9F9002818BFFDF7BDFC40F236
:102AC000CC40C2F20000FFF7AFF90AB010BD000021
:102AD00080B540F25C5041F20001C2F20000C4F245
:102AE000010100234FF00C0C4FF4E13280E80E009E
:102AF000C0E90333C0E905C3C361FFF709FC00283F
:102B000018BFFDF799FC80BD80B540F2A05044F697
:102B10000001C2F20000C4F2000148F2A062C0F25B
:102B20000102002380E80E0000F10C014FF4806CDC
:102B30004FF00C0E81E80850C0E90633FFF7E8FBC0
:102B4000002818BFFDF778FC80BD000080B540F27A
:102B5000E45041F20041C2F20000C4F2010100233E
:102B60004FF00C0C4FF4E13280E80E00C0E9033363
:102B7000C0E905C3C361FFF7CBFB002818BFFDF711
:102B80005BFC80BDFEE70000FEE7000000F00700F0
:102B900080F00703042B28BF04234FF0FF3C0338C9
:102BA0000CFA03F338BF0020994381400CFA00F07F
:102BB00022EA00000843704710B5A8B10446C06B74
:102BC000216CC4E91001207884ED070A30EEC00AB8
:102BD0000228C4ED060A84ED0F0A08D0012834D07B
:102BE00048B194ED080A10BD9FED4B0A10BD02F0EC
:102BF00093F884ED0F0A94ED011A94ED023A20EE59
:102C0000011A94ED034A94ED052A84ED091A94ED16
:102C10000A5A20EE033A35EE033A84ED0A3AD4E933
:102C20000C01B4EE423A606394ED105AA16330EEA9
:102C3000450A84ED0C0A20EE040AF1EE10FA84ED48
:102C40000B0A3CDD84ED0A2A42E094ED102A94ED53
:102C5000014A94ED025A30EE423A24EE033A20EE55
:102C6000054A84ED093A84ED0A4AD4E90C0194ED51
:102C7000036A94ED041AC4E90D0132EE022A94EDC0
:102C8000115A30EE420A30EE050A84ED0C0A20EEAD
:102C9000060A33EE042A94ED083A84ED0B0A32EE6C
:102CA000000A33EE000AB4EE410AF1EE10FA84EDA8
:102CB000080A24DD84ED081A94ED080A10BDB1EE6F
:102CC000422AB4EE423AF1EE10FAB8BF84ED0A2A75
:102CD00094ED0A3A94ED042A31EE031A30EE010A1B
:102CE000B4EE420AF1EE10FA84ED080A04DD84ED38
:102CF000082A94ED080A10BDB1EE421A01E0B1EEC7
:102D0000411AB4EE410AF1EE10FAB8BF84ED081A88
:102D100094ED080A10BD00BF00000000002818BF95
:102D2000002A00D1704780B5136801704360536872
:102D300028218360926880ED040AC260C0ED050A14
:102D40002030FDF787FABDE88040704700000000A2
:102D5000EFF30980BFF36F8F154B1A681EF0100F49
:102D600008BF20ED108A20E9F04F10602DE909001E
:102D70004FF0500080F31188BFF34F8FBFF36F8F78
:102D800002F0D6F94FF0000080F31188BDE8090089
:102D900019680868B0E8F04F1EF0100F08BFB0ECDB
:102DA000108A80F30988BFF36F8F704700BF00BFA0
:102DB0003C060020F0B583B00C4640F2A411C2F2EC
:102DC00000014FF4007340F29C150B6000270423B0
:102DD000C2F2000540F27C26C1E902770B61030ACA
:102DE0006870100AC2F200062B70A870EA7002AB7D
:102DF00030462A46FDF7B4FB40F2BC11C2F2000196
:102E000040F2FF1008600220C1E902770861200A41
:102E1000287001AB30462A466C70FDF7A1FB03B069
:102E2000F0BD000080B540F2A053C2F20003D3F819
:102E300000C0DCF8143043F04003CCF81430DCF868
:102E40000C3043F01003CCF80C3040F26433C2F283
:102E50000003D3F800E0DEF800C02CF00103CEF848
:102E60000030DEF80030DB070AD000BFDEF80030AB
:102E700023F00103CEF80030DEF80030DB07F5D197
:102E800044F60403C4F20003CEF80830CEF80C0078
:102E9000CEF81010CEF80420DEF8000040F48020B8
:102EA000CEF80000DEF8000040F00100CEF800008F
:102EB00080BD000082B00020019000F065FD40F26E
:102EC000F46040F20C71C2F20000C2F200014FF453
:102ED000806200F0BBFC44F61030C2F2000000F546
:102EE00000714FF4007201F041FF01AC01F03CFAB7
:102EF0002046052100F024FEF8E700000000000055
:102F0000074B19680868B0E8F04F80F30988BFF3F1
:102F10006F8F4FF0000080F31188704700BF00BF33
:102F20003C060020012000F003FEFBE780B54FF0D7
:102F3000500080F31188BFF36F8FBFF34F8F02F003
:102F4000EDFA30B14EF60450CEF200004FF0805151
:102F50000160002080F3118880BD000070B592B040
:102F600006AC20463021FDF775F9002543F64000F8
:102F70000595CDE90355CDE901550095C4F2020050
:102F80000168022641F080510160006800F0805025
:102F90000090009847F200000095C4F2000001681C
:102FA00041F480410160006800F480400090009886
:102FB000012006904FF4803007904FF480000D9070
:102FC00006200E90A8200C96CDE90F060420119043
:102FD0002046FEF7D1FB88B90F20CDE901064FF45A
:102FE000A05004904FF48050059001A8052103954E
:102FF000FEF794FA002804BF12B070BDFDF71CFA6A
:103000004EF68850CEF20000016841F47001016074
:103010007047000080B540F21450C2F20000FEF785
:103020004DFE80BD10B540F6FF3E0368C4F2000EB1
:1030300040F2004C7045C4F2010C0FDCB0F1804F3F
:1030400019D040F20042C4F20002904213D040F680
:103050000002C4F2000290420DD010E040F600429F
:10306000C4F20002904206D0604504D00022C4F2AF
:103070000102904203D14A6823F07003134341F6E2
:10308000FF72C4F2000290420DDC70451FDCB0F10B
:10309000804F41D040F20042C4F2000290423BD047
:1030A00040F6000221E043F6FF72C4F201029042B2
:1030B00020DC42F20002C4F2000290422CD0002236
:1030C000C4F20102904227D0604525D028E040F6A6
:1030D0000042C4F2000290421ED041F60002C4F247
:1030E0000002904218D041F60042C4F20002904221
:1030F00012D015E044F20002C4F2010290420BD05B
:1031000044F60002C4F20102904205D044F20042AB
:10311000C4F20102904203D1CA6823F440731343FE
:1031200023F080024B69D1F800E08C681A430260FA
:10313000C46240F48062C0F828E0624504BF0969B7
:1031400001630121416110BD80B501F01F014FF005
:10315000010CD0F820E00CFA01F32EEA030303621D
:10316000036A02FA01F11943016280BD70B5026A77
:1031700040F2004522F001020262036A4268D0F880
:1031800018C08E68D1F800E023F0020340F4806498
:10319000C4F20105AC4243EA060305D1CE6823F030
:1031A0000C0326F004063343AC4205D1D1E90545B2
:1031B00022F4407222432A432CF0730646EA0E069C
:1031C0004260866149684163036270BDF0B5026A7E
:1031D00040F2004522F010020262036A4268D0F811
:1031E00018C08E68D1F800E023F0200340F480641A
:1031F000C4F20105AC4243EA061307D1CE686FF072
:10320000400723F0C00307EA06163343AC4207D158
:10321000D1E9054522F4406242EA840242EA85028D
:103220002CF4E64747EA0E274260876149688163CC
:103230000362F0BDF0B5026A40F2004522F48072EC
:103240000262036A4268D0F81CC08E68D1F800E0C0
:1032500023F4007340F48064C4F20105AC4243EAF5
:10326000062307D1CE6840F2FF47360223F44063BD
:10327000BE433343AC4207D1D1E9054522F4405265
:1032800042EA041242EA05122CF0730747EA0E07DD
:103290004260C7614968C1630362F0BD70B5026AEC
:1032A00040F2004622F480520262026A4368D0F87B
:1032B0001CE00C68D1F808C040F48065C4F2010637
:1032C000B54204D14D6923F4804343EA85132EF4BB
:1032D000E64646EA04264360C66122F40052496885
:1032E00042EA0C320164026270BD000080B5806B5E
:1032F0000021C185C184FEF7EBFE80BD016851E865
:10330000031F026821F4907142E80313002BF5D1EA
:10331000016851E8051F026821F0010142E8051328
:10332000002BF5D1016B01290AD100BF016851E8DA
:10333000031F026821F0100142E80313002BF5D1AE
:10334000202180F83E1000210163704780B501689C
:10335000CA6822F04002CA60202180F83D10FFF7C1
:10336000D3F980BD80B582B090F83E1022291ED1DD
:103370008268B2F5805F02D10169002948D0816A74
:10338000B2F5805F07D00AB9026922B102685268BB
:1033900002F07F0201E0026852680A700121826A2D
:1033A00011448162C18D01390A04C18501D002B086
:1033B00080BD0168CA6822F02002CA60CA6822F48F
:1033C0008072CA604A6922F001024A61202180F8B5
:1033D0003E10016B012923D100210163016851E8EE
:1033E000031F026821F0100142E80313002BF5D1FE
:1033F00001680A68D20606D5002201920A68019285
:10340000496801910199818DFEF760FE02B080BD8F
:103410000168826A49686FF35F2111800221BEE76B
:10342000FFF70AF902B080BD10B504460068D4E980
:1034300002C22369016921F44051114301616269AB
:1034400043EA0C01E3691143C268194349F20C6372
:103450009A431143C1604169A26921F4407141F26C
:103460000043114340F48062C4F201039A42416177
:1034700002D1FEF73BF901E0FEF726F9E169636846
:103480001922B1F5004FA0FB02011CD15A00DB0F3D
:10349000FCF796FE48F21F51C5F2EB11A0FB012389
:1034A0005A096FF0630302FB0300322303EBC000F1
:1034B000A0FB01014FF4F87000EA111000EB0210BC
:1034C000C1F342111AE09A009B0FFCF779FE48F213
:1034D0001F51C5F2EB11A0FB01235A096FF06303E2
:1034E00002FB0300322303EB0010A0FB0101F020DC
:1034F00000EA511000EB0210C1F3431122680843A7
:10350000906010BD90F83D10212923D18168B1F55C
:10351000805F01D1016931B1016A02684B1C03620D
:103520000978516007E0016A036831F8022B6FF3F4
:103530005F225A600162C18C01390A04C18418BF3C
:1035400070470068C16821F08001C160C16841F026
:103550004001C160704700002DE9F0410446006859
:1035600000680840884202D10020BDE8F0811D4675
:103570000E4690465F1C04E0206800683040B04270
:10358000F2D0002FF8D02DB1FDF714FFA0EB08000A
:10359000A842F1D9206850E8030F216820F4D070C8
:1035A00041E80302002AF5D1206850E8050F2168A0
:1035B00020F0010041E80502002AF5D1202084F81E
:1035C0003D0084F83E00002084F83C000320BDE864
:1035D000F081000080B582B08DF8070040F2E45021
:1035E000C2F200000DF10701012240F6FF73FFF760
:1035F00025F802B080BD000080B540F25C50C2F2F8
:103600000000FEF767FD80BD80B582B040F2A0509B
:10361000C2F200000068016889062FD444F6000158
:10362000C4F200010968C90646D50021009101686D
:103630002423009140680090009840F26430C2F268
:103640000000006802680168120321F001010160B6
:103650004168436089B21AD40268122942F40022F8
:103660000260026842F00102026025D140F6C930D2
:10367000C2F2000000F022FF02B080BD00210191E3
:103680000168019140680190019802B080BD46F246
:103690001002C4F202021368122923F400231360FB
:1036A000026842F00102026006D140F6C930C2F25F
:1036B0000000243000F002FF02B080BD80B582B06F
:1036C00041F20040C4F201000068C00633D500207A
:1036D000019040F2E450C2F200000168806B0A6879
:1036E0004FF40073019249680191019900680168E3
:1036F000026811F4002122F0010202604268436076
:103700000368C2F5007223F40023194481F40023F6
:103710000360036844F61031C2F2000143F0010374
:1037200018BF01F50071036040F2F46092B2C2F27A
:10373000000000F099F802B080BD0000FEE7000034
:10374000002848BF704700F01F01012202FA01F172
:103750004EF200124009CEF2000242F820107047EB
:103760004EF60C50CEF200000068C0F30220704705
:103770004EF6145300F00F02CEF2000309011A4472
:1037800000F16043B0F1FF3FC8BF03F56442117020
:10379000704700004EF60C51CEF200010A684FF659
:1037A000FF031A4060F30A2242F0806040F0FD708F
:1037B0000860704770B58AB040F25424012000269A
:1037C000C2F200046D460890CDE906602046294605
:1037D000CDE90066CDE90266CDE90466FCF712FF8B
:1037E0002046FDF743FB20460221FCF7A5FE40F2F0
:1037F0007C240E20C2F200040990CDE9046020462A
:103800002946FCF7FFFE2046FDF730FB204602214B
:10381000FCF792FE0AB070BD80B5EFF3108CEFF3A9
:10382000108172B6416803698B4284BF01680161EF
:103830000269D0E9023112F801EB01330139C0E924
:10384000023102618CF31088704680BD03468818EF
:1038500001384FF0000CC3E900100020C3E9022C2E
:1038600019615961704700002DE9F0470546EFF3F3
:103870001089EFF3108072B621B3AC6814B32F46F1
:1038800057F8140F0E4657F8101C884284BF28685A
:103890006861696868699442A1EB000101F1010A5D
:1038A000C8BF1446544513DD31465246A4EB0A08FE
:1038B000FCF7B7FC286806EB0A014246FCF7B1FCAE
:1038C0002F460AE089F310884FF0FF30BDE8F087FB
:1038D00031462246FCF7A5FCA046386840446861A2
:1038E000D5E90201001B2144C5E9020189F31088D2
:1038F0002046BDE8F0870000C068704741F2000133
:10390000C4F201010A685206FCD5C2B24A6070478F
:1039100080B598B181B145F6F05C0138C0F6000C75
:1039200010F801EFD3B283EA0E033CF8133092B2E1
:10393000013983EA1222F3D190B280BD4FF6FF72B3
:1039400090B280BD61B145F6D02C0138C0F6000CB4
:1039500010F8013FD2B25A401CF802200139F7D1C9
:103960001046704740F2F810C2F2000070470000A5
:1039700040F2D860C2F200007047000040F204201C
:10398000C2F200007047000040F60C31C2F20001A4
:1039900000200871086040F61131C2F20001086091
:1039A000087140F24821C2F20001C1E90000C1F8EB
:1039B000070040F21421C2F20001087040F2182101
:1039C000C2F20001C1E90000C1E90200C1E904003E
:1039D000C1E9060040F21021C2F20001086040F681
:1039E0000471C2F20001086040F60871C2F20001E1
:1039F0000880887040F6A031C2F20001088040F6CD
:103A0000AC31C2F20001C1E90000C1E90200C1E924
:103A100004008861087740F22C61C2F20001C1E91C
:103A20000000C1E9020040F23821C2F20001C1E900
:103A30000000C1E9020040F29411C2F200010870D6
:103A400040F6A831C2F20001087040F6A931C2F276
:103A50000001087040F6F061C2F200010860C1F890
:103A6000030040F29611C2F200018880086040F61F
:103A7000A431C2F20001086040F6F861C2F2000110
:103A80000881C1E900007047B4EE601AF1EE10FA47
:103A900029DBB4EE410AF1EE10FA0FDDB4EE410A73
:103AA000F1EE10FA1FDD30EEC12A00BF32EE000A3F
:103AB000B4EE410AF1EE10FAF8DC14E0B4EE600A5C
:103AC000F1EE10FA0FDAB4EE600AF1EE10FAA8BFC8
:103AD000704731EE601A00BF31EE000AB4EE600AA2
:103AE000F1EE10FAF8DB7047FDF778FCFFF736FAD5
:103AF000FEF712FFFEF748FEFEF70AFEFEF786FF0E
:103B0000FEF76AFFFEF722FEFEF7E2FFFEF7FCFF7C
:103B1000FFF71CF801F0E6F8FEF77CFE00F012F863
:103B2000FEE70000B0F1840118BFC11C08467047D1
:103B300080B5002808BF012001F088FA002080BD70
:103B40008120704780B501F0ABFA002080BD0000F5
:103B50002DE9F04385B047690C46A7B1856995B159
:103B6000D0E90086D0F81090B0F90800FFF7DAFF2E
:103B7000CDE90007304641464A462346029501F00A
:103B800091FC049013E0D0E90056078AB0F90800D0
:103B9000FFF7C8FF0DF1100C0090304629463A4659
:103BA0002346CDF804C001F049FC012803D1049854
:103BB00005B0BDE8F083002005B0BDE8F08300004B
:103BC000F0B581B00D4645F2102140F23C66C2F2DC
:103BD0000001C2F200060F6831680446081D01F0BA
:103BE00031F910B1601C0FD019E0306844F624722E
:103BF000C06AC2F200020121136801FA00F023EA50
:103C000000001060601C0AD14DB13068011D45F202
:103C1000E810C2F2000001F065F901B0F0BD3068B3
:103C2000E41944600AD340F24860C2F20000006820
:103C30003168043101F038F901B0F0BD40F2406064
:103C4000C2F2000000683168043101F02DF945F23C
:103C5000B410C2F2000001688C4238BF046001B0A9
:103C6000F0BD000070B5044601F054F944F614703C
:103C7000C2F20000016840F23C6501310160C2F20D
:103C80000005296845F2DC16C2F2000641B1306831
:103C900060B92868E16AC06A884298BF2C6005E074
:103CA0002C600068012801D100F00CF944F6207066
:103CB000C2F20000016844F6247201310160E06A3A
:103CC000C2F200020121136881401943116040F2E1
:103CD0004C6100EB8000C2F2000101EB8000211D6D
:103CE00001F000F901F03AF9306880B12868E16A22
:103CF000C06A884228BF70BD4EF60450CEF2000064
:103D00004FF080510160BFF34F8FBFF36F8F70BDD5
:103D1000F0B581B044F61875C2F200052868E0B12C
:103D200045F2FC1644F61477C2F20006C2F2000710
:103D300001F0F0F8F068C468201D01F083F83868DD
:103D40000138386028680138286001F007F92046FA
:103D500000F006F828680028EAD101B0F0BD0000A4
:103D600010B5044690F85100022808BF10BD012884
:103D700003D030B9206B01F009F9204601F006F9B3
:103D800010BD4FF0500080F31188BFF36F8FBFF369
:103D90004F8F00BFFEE7000040F60B70C2F200003C
:103DA000C21D22F0070210F0070CA0EB020318BF9F
:103DB000104645F2E012C2F200020021C2E9000101
:103DC0004FF47052BCF1000F18BF03F5705202445B
:103DD000083A40F2446322F00702C2F200031A607C
:103DE000C2E90011111A1A68C0E9002145F2B010A9
:103DF000C2F20000016044F65470C2F2000001609B
:103E000044F62870C2F200000121017070470000E2
:103E100040F24C644EF60455C2F20004CEF20005A6
:103E20004FF08056FFF774FF20680228FAD32E6007
:103E3000BFF34F8FBFF36F8FF4E700002DE9F0471A
:103E4000DDE909878246386B089C00EB8200043864
:103E5000994620F0070679B107F13400002200BF2F
:103E60008B5C83548B5C1BB10F2A02F10102F7D3E8
:103E7000002087F8430002E0002087F83400002586
:103E8000381D062C28BF0624FC62C7E9114501F045
:103E900007F807F1180001F003F884F00700B86193
:103EA000304651464A463F617F62FD6487F8505074
:103EB00000F058F9B8F1000F386018BFC8F800706A
:103EC000BDE8F087B0B540F24C650024C2F20005B1
:103ED000281900F0D9FF14348C2CF9D144F62C7435
:103EE000C2F20004204600F0CFFF44F64075C2F253
:103EF0000005284600F0C8FF45F2C810C2F20000D5
:103F000000F0C2FF45F2FC10C2F2000000F0BCFF5E
:103F100045F2E810C2F2000000F0B6FF40F2406047
:103F2000C2F20000046040F24860C2F20000056086
:103F3000B0BD000080B545F2E012C2F2000200BF41
:103F4000114612688242FBD3D1F804C001EB0C0386
:103F5000834203D14068604448600846D0F804E0DA
:103F600000EB0E03934201D0026010E040F2446384
:103F7000C2F20003D3F800C0624506D00B68526855
:103F80001B687244C0E9003201E0C0F800C0814201
:103F900018BF086080BD000008480068006880F312
:103FA00008884FF0000080F3148862B661B6BFF352
:103FB0004F8FBFF36F8F00DF00BF00BF08ED00E041
:103FC00040F24060C2F200000168096821B1006857
:103FD000C068C068406801E04FF0FF3045F2B4119E
:103FE000C2F200010860704781B00020009040F2EA
:103FF0008C00C2F2000000684FF0500181F311887C
:10400000BFF36F8FBFF34F8F013001D0FEE700BFCA
:1040100000980028FCD001B0704700002DE9F04363
:1040200081B0044601F07CF840F24466C2F200061A
:104030003068002808BFFFF7AFFE44F62878C2F2C8
:10404000000898F80000002818BF4FF000402042F8
:104050000DD0002401F014FB60071ED04FF050007B
:1040600080F31188BFF36F8FBFF34F8FFEE7C4B1AA
:1040700004F1080111F007001EBF081A00F1080141
:104080005FEA41700ED04FF0500080F31188BFF30B
:104090006F8FBFF34F8F00BFFEE7204601B0BDE832
:1040A000F083002144F65479C2F20009D9F80000E7
:1040B0004A1E8242CDD245F2E010C2F200000568ED
:1040C0002F4657F8042F8A4211D22B685BB100BFEC
:1040D0001F4657F8042F28461D468A4207D22B68F0
:1040E000002BF5D103E045F2E010C2F20000336886
:1040F0009D42AED004682B68521A112A036010D377
:104100006818430709D04FF0500080F31188BFF3BF
:104110006F8FBFF34F8F00BFFEE742603960FFF73C
:1041200009FF45F2B0113868D9F80020C2F2000149
:104130000B68121A9A42C9F8002038BF0A6098F832
:104140000010083400294FF0000118BF40F0004073
:10415000296045F2BC11C2F200010A683860501CA7
:10416000086077E7034643F6E970C0F600004FF0B9
:10417000807C21F0010103E903106FF0020043F895
:10418000240CA3F1440043F8202C704780B501793A
:1041900040F60C32C2F200021171B0F8051003684B
:1041A000B1F5007F136013DDA1F20122092A35D891
:1041B000DFE802F0054756656C737A869198C11D59
:1041C00040F6AC30C2F200001D22FCF72AF880BD98
:1041D000B1F5807F11DDA1F20111042900F28C807C
:1041E000DFE801F0038B939DA500D0F8070040F2B3
:1041F0001021C2F20001086080BD012900F09E80FC
:10420000022900F0AA80032976D1C11D40F21820AE
:10421000C2F200002022FCF704F880BD40F2013217
:10422000914218BF80BDB0F80F1040F6F862C2F29C
:1042300000021181D0F80710D0F80B00C2E900107D
:1042400080BDD0F80710D0F80B20D0F80F30D0F890
:1042500013C040F22C60C2F2000080E80E1080BD56
:10426000D0F80710D0F80B20D0F80F30D0F813C0DA
:1042700040F23820C2F2000080E80E1080BDC07904
:1042800040F29411C2F20001087080BDC07940F67E
:10429000A831C2F20001087080BDC07940F6A93192
:1042A000C2F20001087080BDD0F80710D0F80A00F3
:1042B00040F6F062C2F20002C2F80300116080BD55
:1042C000B0F80B1040F29612D0F80700C2F20002CC
:1042D0009180106080BDD0F8071040F6A432C2F281
:1042E00000021160B0F80B1040F2EC12D0F8070099
:1042F000C2F200029180106080BDD0F8070040F645
:104300000471C2F20001086080BD417A40F6087273
:10431000B0F80700C2F200029170108080BDB0F8C2
:10432000070040F6A031C2F20001088080BDC079CC
:1043300040F2F211C2F20001087080BDD0F80710FF
:10434000D0F80B20D0F80E0040F24823C2F2000350
:10435000C3F80700C3E9001280BDC07940F2142100
:10436000C2F20001087080BD2DE9F04F81B040F22B
:10437000F460C2F20000FFF7BFFA002800F08F805F
:1043800040F6163640F2F464C2F20006C2F20004AF
:1043900000274FF001084FF002094FF0030A4FF0D9
:1043A000040BB51D06E000BF2046FFF7A5FA002864
:1043B00000F075802046FFF72FFA96F88610052941
:1043C0004AD8DFE801F00D192403354EB6F88710FE
:1043D0004A1C3144A6F88720887186F886B0E3E746
:1043E000A5283BD1B6F8871086F886804A1C314450
:1043F000A6F887208871D7E7B6F88710B0804A1CE6
:104400003144A6F88720887186F88690CCE7B18879
:10441000B6F8873041EA00218AB2B180591CA6F86B
:104420008710F118762A887116D886F886A0BBE71F
:10443000B6F887104A1C3144A6F887208871B6F870
:1044400087000528B0D12846052100F0D9FE18B113
:10445000052086F88600A7E786F88670A6F887709C
:10446000A2E7B188B6F887200931914204D9531CDC
:104470003244A6F887309071B6F8870081423FF643
:1044800093AF284686F88670A6F8877000F094FEF1
:1044900000283FF489AF2846FFF778FE84E701B093
:1044A000BDE8F08F80B540F6C930C2F2000000F1DF
:1044B00024012422FEF7B6FC80BD0000002808BFBE
:1044C0007047B0B590F800E0417861F30A2E40F2F1
:1044D000D861C2F20001A1F800E042788378D508E3
:1044E00063F34A154D808278C37804799B0043EAD0
:1044F000921204F0010342EA832CA1F804C002796D
:104500004379520863F3CA12CA804379A2F58062E4
:10451000C3F301138B7243799B09CB728379C479FE
:1045200043EA04238B81037A447A43EA0423CB8150
:10453000837AC47A43EA04230B82037B8B74437B24
:10454000CB74837BC47B43EA04238B82037C407C53
:10455000CA8043EA0020AEF580630B80A5F5806336
:1045600008814B80ACF58063A0F580608B8008816A
:10457000BDE8B0407047000010B52DED028B40F64D
:104580001444C2F20004E0699FED678AB0F90200AA
:10459000D4ED0D0A00EE100AB8EEC00A20EE080AAB
:1045A00004F52070FEF708FB206ABDEEC00A10EE8D
:1045B000101A90ED000AD4ED0B0A04F50E70A4F861
:1045C000CC12FEF7F9FABAEE041AC0EE010A6069DD
:1045D0009FED561AB0F9020000EE100AB8EEC00ABC
:1045E00020EE010A04F5F870FEF7E6FABDEEC00A07
:1045F00010EE100AA4F8CA02606A94ED0C0A9FED4E
:104600004C1AB0F9041094ED0A2A4FF4B47220EE5B
:10461000010A514330EE020A01EE101A90ED002A11
:10462000B8EEC11A32EE011A40F2286030EE410AAB
:10463000C2F20000DFED3F0A80ED000A04F5D470FD
:10464000FEF7BAFAB2EE041AC0EE010AA069B0F998
:10465000020000EE100AB8EEC00A20EE080A04F5C7
:10466000B070FEF7A9FA6068BDEEC00AB0F90200AA
:1046700010EE101A00EE100A94ED0F1AB8EEC00AF0
:1046800020EE080AF1EE410A04F14000A4F8C81235
:10469000FEF792FABDEEC00A10EE100AA168A4F867
:1046A000CE02B1F90200D4ED0E0A00EE100AB8EE07
:1046B000C00A20EE080A04F18800FEF77DFABDEE7C
:1046C000C00A10EE100AE168A4F8D002B1F90200A5
:1046D000D4ED0F0A00EE100AB8EEC00A20EE080A68
:1046E00004F1D000FEF768FABDEEC00A10EE100A21
:1046F0002169A4F8D202B1F9020094ED0E1A00EE7D
:10470000100AB8EEC00A20EE080AF1EE410A04F5DC
:104710008C70FEF751FABDEEC00A10EE100AA4F834
:10472000D402BDEC028B10BD118DEE38FF08433B67
:104730000000B44300000000F0B581B02DED068B01
:10474000FFF716F940F61445C2F200050024286070
:10475000E0B2FBF7B1FE05EB84010134042C4860A4
:10476000F6D1FBF7A3FEE861FBF7B0FEA861FBF70B
:10477000B3FE6861FFF702F92862FFF7F3F89FEDD7
:10478000388A9FED389A40F21C0705F14004002654
:10479000C2F20007686200BFBA1920460021B0EEDD
:1047A000480AF0EE490AFEF7B9FA0C36302E04F149
:1047B0004804F1D19FED2C8A9FED2A9A40F27402B1
:1047C00005F5F870C2F200020021B0EE480AF0EEE2
:1047D000490A0024FEF7A2FA40F26802B2EE04AAE7
:1047E00005F50E70C2F200020221B0EE4A0AF0EEA8
:1047F000490AFEF793FA40F2580205F5B070C2F28A
:1048000000020021B0EE480AF0EE490AFEF786FAEF
:1048100040F24C0205F5D470C2F20002F1EE040A37
:104820000021B0EE4A0AFEF779FA40F200029FED4D
:104830000F0A05F52070C2F200020021F0EE490ACD
:10484000FEF76CFA00200021C4F2DC20C4F2323101
:10485000C5E90A102C63BDEC068B01B0F0BD00BFAA
:1048600000B07E4600409C450060EA4600401C4681
:1048700070B52DED048B40F61445C2F20005286892
:10488000C17A012951D0022940F09A8040F6F8609F
:10489000C2F20000B0F906109FEDF08A00EE101A87
:1048A000B8EEC00A80EE080A40F29001C2F20001A0
:1048B00091ED001AB0F9080095ED0B2A9FEDF23A40
:1048C00021EE000A01EE100AB8EEC11A81EE081AB4
:1048D00032EE002A9FEDED0AB4EE432A40F280004A
:1048E000F1EE10FAC8BFB0EE432AB4EE402AC2F28D
:1048F0000000F1EE10FAB8BFB0EE402A90ED000AC9
:1049000095ED0A3A85ED0B2A20EE010A9FEDE01A9B
:1049100033EE000AB4EE410AF1EE10FA85ED0A0A10
:1049200040F3B180B7EE009AB6E0B0F904109FED05
:10493000D51A00EE101AB8EEC00A80EE010A40F255
:104940009001C2F2000191ED002AB0F902009FED42
:10495000CE3A22EE000A02EE100AB8EEC22A82EE29
:10496000011A95ED0B2A40F2800032EE002A9FEDED
:10497000C70AB4EE432AF1EE10FAC8BFB0EE432ADC
:10498000B4EE402AC2F20000F1EE10FAB8BFB0EE69
:10499000402A90ED000A95ED0A3A20EE010A9FEDBB
:1049A000BC1A33EE000AB4EE410AF1EE10FA85EDBE
:1049B0000A0A85ED0B2A40F30981B7EE008A0EE161
:1049C000817A032940F04281B0F908009FEDAD8A59
:1049D000404200EE100AB8EEC00A80EE080A40F22B
:1049E000180040F2140140F20C06C2F20000C2F2BC
:1049F0000001C2F2000642F200040068096896ED68
:104A0000001AC4F20204A863E96321EE000A2046FA
:104A1000402185ED0D0AFCF7C7FCB0B9286896ED7A
:104A2000001AB0F90800404200EE100AB8EEC00AC1
:104A300080EE080A21EE000AB5EE400AF1EE10FA07
:104A400085ED0D0AC4BF0020686320468021FCF775
:104A5000ABFC002840F0B780286896ED001AB0F94A
:104A60000800404200EE100AB8EEC00A80EE080AC4
:104A700021EE000AB5EE400AF1EE10FA85ED0D0ABE
:104A800080F2A1809AE09FED831AB4EE410AF1EE24
:104A900010FA0BDABFEE009A00F03EF995ED0C1A11
:104AA00085ED0A0A31EE090A85ED0C0A95ED0C1A1E
:104AB0009FED790A95ED0A2A21EE001A9FED773ACB
:104AC00031EE021AB4EE431AF1EE10FA06DD4FF0A1
:104AD0007E5028630020CCF22230A86295ED0C1A9B
:104AE00095ED0A2A21EE000A9FED6D1A30EE020ABA
:104AF000B4EE410AF1EE10FA05DA00202863002036
:104B0000C4F21930A86240F2EC10C2F20000007842
:104B1000022800F0A580002840F0988040F218009C
:104B200040F2140140F20C06C2F20000C2F2000191
:104B3000C2F2000642F200040068096896ED000A1D
:104B4000C4F20204A863E963B1EE400A20464021A2
:104B500085ED0D0AFCF728FCB0B9286896ED001A1F
:104B6000B0F90800404200EE100AB8EEC00A80EE2C
:104B7000080A21EE000AB5EE400AF1EE10FA85EDC2
:104B80000D0AC4BF0020686320468021FCF70CFC9E
:104B9000C8B9286896ED001AB0F90800404200EE46
:104BA000100AB8EEC00A80EE080A21EE000AB5EE3F
:104BB000400AF1EE10FA85ED0D0A04DA0020686370
:104BC000BDEC048B70BDBDEC048B70BD9FED311A44
:104BD000B4EE410AF1EE10FA0BDABFEE008A00F0F3
:104BE0009BF895ED0C1A85ED0A0A31EE080A85ED61
:104BF0000C0A95ED0C1A9FED280A95ED0A2A21EE74
:104C0000001A9FED263A31EE021AB4EE431AF1EE85
:104C100010FA06DD4FF07E5028630020CCF22230DF
:104C2000A86295ED0C1A95ED0A2A21EE000A9FED77
:104C30001C1A30EE020AB4EE410AF1EE10FA05DA5F
:104C4000002028630020C4F21930A8620020C5E9C2
:104C50000D00E863BDEC048B70BD00BF000025446F
:104C600040F2180040F21401C2F20000C2F200014A
:104C7000006809680022C5E90D20E963BDEC048BDA
:104C800070BD00BF000025440000EE420000D2428B
:104C900000003443000034C30000B4430000464326
:104CA00000001943FFF748FD40F61444C2F2000427
:104CB000FFF7DEFDFFF760FCB4F9CE02B4F9D012C5
:104CC000B4F9D222B4F9D432FBF7BCFBB4F9C80270
:104CD000B4F9CA12B4F9CC22FEF76CF80120FEF741
:104CE00027FFE5E710B54FF47A70FCF77BFA40F246
:104CF000CC44C2F2000420460021FDF75DF92046B5
:104D00000421FDF759F920460821FDF755F9FEF772
:104D100051FDFFF7C7FB10BD80B5DFED030A9FED26
:104D2000031AFEF7B1FE80BD000034C30000344317
:104D300040F61440C2F20000D0E9081040F21C1402
:104D40000968C2F20004216081880068218140F274
:104D5000F211C2F2000109786060618194E80700F5
:104D600000F064FA0A20FEF7E3FEF7E7B0B540F280
:104D7000E453C2F200031B6840F2C43C5C69C2F217
:104D8000000C44F040045C615C6944F080045C61A8
:104D9000DC6844F01004DC60DCF800301C6824F0AF
:104DA00001041C601C68E407F8D146F20C45C4F20B
:104DB0000205DCF800E005F14C04A64503D94FF4E8
:104DC00000642C6016E046F2080CC4F2020C0CF1F0
:104DD000B004A64504D94FF40065CCF8005409E0AE
:104DE0000CF150044FF40065A64594BFCCF8005078
:104DF000CCF8045041F2044CC4F2010CC3F808C0D2
:104E0000D86019615A60186840F4802018601868EA
:104E100040F00100186040F22440C2F20000006837
:104E2000016821F0010101600168C90707D000BFD6
:104E3000016821F0010101600168C907F8D1C0F8DB
:104E400008C0B0BDD0E90123016993604B68D0F878
:104E500008C08342CCF8042001D182684A60002255
:104E600002610868013808600868704745F25C1301
:104E7000C2F20003036044F65870C2F200000860FA
:104E800080201060704700004FF0FF31024642F86A
:104E9000081F00214260C0E9032201607047000042
:104EA000002101617047000080B5D1F800C01CF1FD
:104EB000010207D000F108039E465B681A6862454C
:104EC000FAD901E0D0F810E0DEF8042008614A6069
:104ED0009160C1F808E0CEF804100168013101606A
:104EE00080BD0000D0F800C0436808619A684B603C
:104EF0008A609A68996051600CF101010160704705
:104F0000DFF80C00016841F470010160704700BFD8
:104F100088ED00E04FF0500080F31188BFF36F8FF1
:104F2000BFF34F8F40F28C00C2F2000001684A1CB0
:104F3000026001B170474EF60450CEF200000068E6
:104F4000000608BF70474FF0500080F31188BFF390
:104F50006F8FBFF34F8F00BFFEE7000040F28C0061
:104F6000C2F20000016839B10139016018BF704711
:104F7000002080F3118870474FF0500080F31188B3
:104F8000BFF36F8FBFF34F8FFEE70000B0B500286F
:104F900008BFB0BD044644F62870C2F20000007895
:104FA00054F8041C002818BF4FF0004008420CD0F1
:104FB000A4F108052A6892B14FF0500080F31188DF
:104FC000BFF36F8FBFF34F8FFEE74FF0500080F3BA
:104FD0001188BFF36F8FBFF34F8F00BFFEE721EA49
:104FE000000044F8040C00F09BF844F65471C2F23F
:104FF000000154F8040C0A68104408602846FEF7C3
:1050000099FF45F2C010C2F2000001680131016051
:1050100000F036FBB0BD00004EF21000CEF20000F2
:1050200000210160816040F26401C2F20001096860
:1050300044F6D352C1F26202A1FB02124FF0FF31DB
:1050400001EB9211416007210160704710B5D8B1A2
:10505000044644F61C70C2F20000006848B14FF0EC
:10506000500080F31188BFF36F8FBFF34F8F00BFE5
:10507000FEE700F055F820460021FEF7A1FD00F004
:10508000FFFA002818BF10BD4EF60450CEF2000003
:105090004FF080510160BFF34F8FBFF36F8F10BD92
:1050A00010B586B0002405A804A903AACDE90444DC
:1050B000FFF7DCFEDDE9032005990023CDE90101BE
:1050C00043F61160C0F6000013A1009400F0EAF965
:1050D00045F25811C2F200010860D8B14FF05000FB
:1050E00080F31188BFF36F8FBFF34F8F45F2B41079
:1050F000C2F200004FF0FF31016045F2DC10C2F255
:1051000000000121016045F21020C2F2000004609D
:1051100000F00AF906B010BD49444C4500000000FB
:1051200044F61C70C2F20000016801310160704752
:1051300044F61C70C2F20000006830B145F2142041
:10514000C2F2000001210160704745F21420C2F252
:1051500000000021016044F62470C2F200000068E3
:10516000B0FA80F0C0B2C0F11F0040F24C6100EB19
:105170008000C2F2000151F8202092B101EB8000C2
:1051800050F8041F4968021D9142016001D149682D
:105190000160006840F23C61C068C2F20001086032
:1051A00070474FF0500080F31188BFF36F8FBFF34B
:1051B0004F8F00BFFEE7000070B5054600284FF096
:1051C000000008BF70BD0C46032917D340F2100041
:1051D000C2F200000288A61E28463146FEF798FB60
:1051E000A95DC2B291421CBF002070BD611911F8C7
:1051F000011CA1EB1020B0FA80F0400970BD000046
:10520000B0B5044600284FF000000DD0032938BF88
:10521000B0BD4D1E20462946FF22FEF793FB615D7F
:10522000401AB0FA80F04009B0BD00002DE9F0410D
:1052300088B005AB40F2281807C34FF0FF30C2F228
:105240000008ADF81200A52098F800108DF80800AD
:10525000122002ACADF809008DF80B102046042195
:10526000FF22FBF759F98DF80C0040F20130ADF840
:105270000D0040F6AC30C2F20000007840F202218E
:105280000828ADF8001004D06C2808D16A206C21E1
:1052900001E006200821ADF80210ADF80400204618
:1052A00007214FF6FF720727FBF71CF96E460246EF
:1052B000ADF8120030460621FBF714F90546013C13
:1052C000ADF8120014F8010FFEF784F9013FF9D18F
:1052D000741E062614F8010FFEF77CF9013EF9D181
:1052E00005AC20460C212A460C25FBF7FBF8013CB7
:1052F000ADF8120014F8010FFEF76CF9013DF9D179
:105300004FF0FF340DF1120528194078FEF762F9CD
:105310000134F9D298F80000411C002088F80010F0
:1053200008B0BDE8F081000080B582B04EF20040C8
:10533000CEF200004CF27021C4F20F11D0F8002917
:105340004B1C9A4209D14FF0500080F31188BFF3F3
:105350006F8FBFF34F8F00BFFEE7D0F800298A425E
:1053600009D14FF0500080F31188BFF36F8FBFF366
:105370004F8F00BFFEE7017844F60B320191FF2109
:1053800001700178C2F200028DF803109DF803103D
:1053900001F05001117044F60C31C2F200010722F5
:1053A0000A609DF90320B2F1FF3F0CDC0A6800BFE0
:1053B0009DF80330013A5B008DF803309DF903300E
:1053C000002BF5D40A600A68032A2DD14FF4E0635C
:1053D00003EA02220A6001990170D0F8201941F411
:1053E0007001C0F82019D0F8201941F07041C0F8C0
:1053F0002019FFF711FE40F28C00C2F200000021DC
:105400000160FFF77DFD4EF63470CEF200000168BA
:1054100041F040410160FEF7BFFDFFF789FEFEF756
:10542000E3FD002002B080BD4FF0500080F31188F2
:10543000BFF36F8FBFF34F8FFEE700002DE9F043FE
:1054400083B007469000984615468946FEF7E6FD6C
:1054500078B106465420FEF7E1FD38B104460663F4
:1054600054B94FF0FF3003B0BDE8F0833046FFF78A
:105470008DFD0024002CF4D0DDE90A10002284F810
:105480005120CDE90010384649462A464346029449
:10549000FEF7D4FC2046FEF7E5FB012003B0BDE893
:1054A000F083000070B586B00B9CCCB10C9E06B3A7
:1054B00054250495049D542D25D1049DDDF828C064
:1054C000022586F8515005AD3463CDE900C502963A
:1054D000FEF7B4FC3046FEF7C5FB059806B070BD7C
:1054E0004FF0500080F31188BFF36F8FBFF34F8FE1
:1054F000FEE74FF0500080F31188BFF36F8FBFF3CA
:105500004F8F00BFFEE74FF0500080F31188BFF3CC
:105510006F8FBFF34F8F00BFFEE700002DE9F04F04
:1055200081B044F61C70C2F20000006840B145F240
:10553000C410C2F2000001680024013101609BE048
:1055400045F21020C2F2000001684E1C066021D313
:1055500040F24060C2F200000168096849B14FF0B2
:10556000500080F31188BFF36F8FBFF34F8F00BFE0
:10557000FEE740F24862C2F200020168136803606D
:1055800045F2B8101160C2F20000016801310160FB
:10559000FEF716FD45F2B411C2F20001086840F2B0
:1055A0003C6A8642C2F2000A01D200244EE040F278
:1055B000406BC2F2000BDBF8000000240068D8B397
:1055C00044F624790127C2F200091FE0D8F82C0024
:1055D000D9F8001007FA00F21143C9F8001040F2A0
:1055E0004C6100EB8000C2F2000101EB8000294613
:1055F000FFF778FCD8F82C00DAF80010C96ADBF85D
:1056000000208842106828BF3C46C0B1DBF800008B
:10561000C068D0F80C80454655F8040F864210D378
:105620002846FFF70FFCD8F828000028CED008F154
:105630001800FFF707FCC9E74FF0FF3005E04FF017
:10564000FF3045F2B411C2F200010860DAF8000040
:1056500040F24C61C06AC2F2000100EB800051F8D8
:105660002000012845F21420C2F2000088BF012466
:105670000068002818BF0124204601B0BDE8F08F63
:105680002DE9F04F81B044F61C74C2F2000420688A
:1056900068B1FFF73FFC206801382060206880B1C6
:1056A0000024FFF75BFC204601B0BDE8F08F4FF00F
:1056B000500080F31188BFF36F8FBFF34F8F00BF8F
:1056C000FEE744F61470C2F20000006800285FD0C4
:1056D00045F2C816C2F20006306845F21428C2F23C
:1056E000000898B344F6247540F24C6940F23C6AD5
:1056F0004FF0010BC2F20005C2F20009C2F2000A2B
:10570000F068C76807F11800FFF79CFB3C1D2046B6
:10571000FFF798FBF86A29680BFA00F2114300EBD7
:105720008000296009EB80002146FFF7DBFBF86A67
:10573000DAF80010C96A884228BFC8F800B030689B
:105740000028DDD1002F18BFFEF73AFC45F2C41443
:10575000C2F2000425685DB1012600BFFFF7DEFE3E
:10576000002818BFC8F80060013DF7D10020206074
:10577000D8F8000070B14EF60450CEF200004FF0A1
:1057800080510160BFF34F8F0124BFF36F8F88E713
:10579000002486E7002484E70FB4054B10B503A965
:1057A000044A029800F018F810BC5DF814FB0000E1
:1057B000FD3800084001002002E008C8121F08C19F
:1057C000002AFAD170477047002001E001C1121F82
:1057D000002AFBD1704700002DE9FF4F89B09B469E
:1057E0000446002506E025280BD05A460B99904721
:1057F000641C6D1C20780028F5D10DB02846BDE84A
:10580000F08F0027B8460122474900E0074314F80B
:10581000013F203B02FA03F00842F7D120782E28FE
:1058200019D114F8010F47F004072A280ED06FF0A1
:105830002F022078A0F1300109290CD808EB88014B
:1058400002EB410100EB0108641CF2E70A98641CBA
:1058500050F8048B0A9020780028CED0642808D015
:10586000692806D075281ED05A460B9990476D1CA2
:1058700058E00A994FF00A0901C90A91002802DA92
:1058800040422D2102E0390504D52B218DF820104E
:10589000012103E0F90704D02021F7E78A4608AE8A
:1058A0000DE00021FAE70A994FF00A0901C90A91AF
:1058B000F7E74946FAF7D9FC303106F8011D002810
:1058C000F7D1ADEB060000F12009780701D44FF0C5
:1058D0000108C84502DDA8EB090000E00020804671
:1058E000002706E008A85A46C05D0B9990476D1C3A
:1058F0007F1C5745F6DB04E030205A460B99904751
:105900006D1CB8F10001A8F10108F5DC05E016F8FE
:10591000010B5A460B9990476D1CB9F10001A9F192
:105920000109F4DC641C65E709280100D35B000869
:10593000F903000800000000000000000002000061
:105940000000000000000000D05B0008314D00089E
:105950000000000000000000000400000000000043
:1059600000000000DE5B0008252F0008FDFF00009E
:1059700000000000800000000000000000000000A7
:10598000D65B0008B52E00080000000000000000F3
:10599000000200000000000000000000EA5B0008B8
:1059A000A54C0008000000000000000000020000FC
:1059B00000000000000000000000000000000000E7
:1059C00001020304060708090000000001020304A5
:1059D000005EBCE2613FDD83C29C7E20A3FD1F41CF
:1059E0009DC3217FFCA2401E5F01E3BD3E6082DCBF
:1059F000237D9FC1421CFEA0E1BF5D0380DE3C62AF
:105A0000BEE0025CDF81633D7C22C09E1D43A1FF9E
:105A10004618FAA427799BC584DA3866E5BB59078E
:105A2000DB856739BAE406581947A5FB7826C49A7E
:105A3000653BD987045AB8E6A7F91B45C6987A246E
:105A4000F8A6441A99C7257B3A6486D85B05E7B95E
:105A50008CD2306EEDB3510F4E10F2AC2F7193CD4E
:105A6000114FADF3702ECC92D38D6F31B2EC0E503E
:105A7000AFF1134DCE90722C6D33D18F0C52B0EE2E
:105A8000326C8ED0530DEFB1F0AE4C1291CF2D731E
:105A9000CA947628ABF517490856B4EA6937D58B0E
:105AA0005709EBB536688AD495CB2977F4AA4816FE
:105AB000E9B7550B88D6346A2B7597C94A14F6A8EE
:105AC000742AC896154BA9F7B6E80A54D7896B35DE
:105AD000005EBCE2613FDD83C29C7E20A3FD1F41CE
