:020000040800F2
:10000000C07000209D010008F1440008B93F0008BD
:10001000ED440008CD020008B557000800000000BC
:10002000000000000000000000000000614A00081D
:10003000A50400080000000041480008994A000893
:10004000B7010008B7010008B7010008B7010008B0
:10005000B7010008B7010008B7010008B7010008A0
:10006000B7010008B7010008B7010008B701000890
:10007000F1020008B7010008B7010008B701000845
:10008000B7010008B7010008B7010008B701000870
:10009000D1020008B7010008B7010008B701000845
:1000A000B7010008B7010008B7010008B701000850
:1000B000B7010008B7010008B7010008B701000840
:1000C000B7010008B7010008B7010008B701000830
:1000D000B701000841550008B70100085155000854
:1000E000B7010008B7010008B7010008B701000810
:1000F000B7010008B7010008B7010008B701000800
:10010000B7010008B7010008B7010008B7010008EF
:10011000B7010008B7010008B7010008AD4B00089F
:10012000B70100080103000811030008B701000827
:10013000B7010008B7010008B7010008B7010008BF
:10014000E1020008B7010008B7010008B701000884
:10015000B701000821030008310300089956000880
:10016000B7010008B7010008B7010008B70100088F
:10017000B7010008B7010008B7010008000000003F
:10018000B7010008B7010008DFF80CD000F08CF8C8
:1001900000480047795C0008C0700020064880478E
:1001A00006480047FEE7FEE7FEE7FEE7FEE7FEE75C
:1001B000FEE7FEE7FEE7FEE7994B0008890100082D
:1001C0002DE9F05F0546002092469B46884606468C
:1001D000814640241BE0284641464746224600F01F
:1001E00053F853465A46C01A914110D31146184647
:1001F000224600F03AF82D1A67EB01084F462246D6
:100200000120002100F031F817EB00094E41201EBB
:10021000A4F10104DFDC484631462A464346BDE8E6
:10022000F09F40EA01039B0703D009E008C9121FB1
:1002300008C0042AFAD203E011F8013B00F8013BA0
:10024000521EF9D27047D2B201E000F8012B491ECC
:10025000FBD270470022F6E710B513460A46044663
:100260001946FFF7F0FF204610BD202A04DB203A94
:1002700000FA02F1002070479140C2F1200320FAF9
:1002800003F3194390407047202A04DB203A21FAF7
:1002900002F00021704721FA02F3D040C2F120029F
:1002A0009140084319467047064C074D06E0E06848
:1002B00040F0010394E8070098471034AC42F6D3AD
:1002C000FFF766FF3884000858840008FFE7FEE760
:1002D00080B540F2A410C2F2000000F019FC80BD0D
:1002E00080B540F2CC10C2F2000000F011FC80BDDD
:1002F00080B540F2B420C2F2000001F031FA80BDB6
:1003000080B540F21430C2F2000001F029FA80BD3D
:1003100080B540F2F410C2F2000001F021FA80BD75
:1003200080B540F27430C2F2000001F019FA80BDCD
:1003300080B540F25420C2F2000001F011FA80BDF5
:1003400082B001900198007810384AF6AB21CAF6C5
:10035000AA21A0FB010109090091009948F20C2291
:10036000C0F60002515C019AD1650099042907D3B7
:10037000FFE701980168042262F30901816506E044
:100380000198016840F2FF3291438165FFE70198CF
:10039000806D02B07047000086B0059000208DF897
:1003A00013000598806A039005988069002823D17E
:1003B000FFE70398032802901CD80299DFE801F0B8
:1003C000020E0219059890F82F00C007002804D0EB
:1003D000FFE701208DF81300FFE70CE00598C06AE5
:1003E000B0F1C07F04D1FFE701208DF81300FFE7D3
:1003F00001E000E0FFE747E005988069B0F5005FA5
:1004000026D1FFE70398032801901FD80199DFE860
:1004100001F00206021201208DF8130017E0059882
:1004200090F82F00C007002804D0FFE701208DF8C6
:100430001300FFE70BE00598C06AB0F1C07F04D15C
:10044000FFE701208DF81300FFE700E0FFE71AE067
:1004500003980328009004D3FFE70098032804D0F2
:100460000FE001208DF813000CE0059890F82F00A4
:10047000C007002804D0FFE701208DF81300FFE734
:1004800000E0FFE7FFE7FFE79DF8130006B07047C5
:1004900080B582B00190FFE7012005F027FC0090B5
:1004A000FAE700007047000081B0EFF3108072B6E9
:1004B0000090FFE7FEE70000B0B588B09C46964686
:1004C0000C460546ADF81E00ADF81C10ADF81A201C
:1004D000ADF8183040F23C10C2F200004FF4007149
:1004E000016000218160C160082101619DF81F1039
:1004F00040F20412C2F2000211709DF81E105170F9
:100500009DF81D1091709DF81C10D1709DF81B1066
:1005100011719DF81A1051719DF8191091719DF883
:100520001810D17140F2A411C2F2000105AB049081
:1005300008460499CDF80CC0CDF808E00194009568
:1005400000F04EF808B0B0BD40F26000C2F200000A
:100550007047000081B001468DF803009DF803004C
:1005600000EB800040F27802C2F2000202EB800051
:1005700001B0704740F2D000C2F2000070470000A6
:1005800040F2E800C2F200007047000084B0029020
:100590000191029890F820008DF803009DF8030067
:1005A000012805D0FFE79DF8030002280AD1FFE7E4
:1005B0000198029909684A691043486100208DF842
:1005C0000F0008E00298416A41F480214162012055
:1005D0008DF80F00FFE79DF80F0004B07047000092
:1005E00088B00690059104920393069890F8200035
:1005F0008DF807000698006880680090059880686C
:10060000002801D1FFE700E0FFE79DF8070001287F
:1006100006D0FFE79DF80700022840F08F80FFE733
:100620009DF80300400700280CD4FFE79DF8030065
:100630000007002806D4FFE79DF80300C006002845
:1006400073D5FFE70098C0F3016002900298032879
:1006500009D3FFE70698416A41F400014162012095
:100660008DF81F0073E00298012101FA00F0039950
:1006700008600598806800280DD1FFE7059801689B
:10068000C06840EA415006990968029A01EB0211DC
:10069000C1F880010EE0059841688268C06842EAAE
:1006A000C101084306990968029A01EB0211C1F8D9
:1006B0008001FFE70598006906990968029A01EB35
:1006C0000211C1F884010598007D01280CD1FFE7D3
:1006D00006980068029900EB0110D0F8841141F4EB
:1006E0008071C0F88411FFE7049840680699096892
:1006F000029A01EB0211C1F88C0104980068069976
:100700000968029A01EB0211C1F888010698006895
:10071000029900EB0110D0F8801141F00101C0F8FE
:10072000801100208DF81F0011E00698416A41F405
:100730000011416201208DF81F0008E00698416A0F
:1007400041F48021416201208DF81F00FFE79DF8F0
:100750001F0008B07047000086B004900391049811
:1007600000680190049890F820008DF803009DF82F
:100770000300012806D0FFE79DF80300022840F09F
:10078000B880FFE746F20040C4F2000001900198F3
:10079000D0F8001241F00101C0F800120198D0F821
:1007A000001221F47C51C0F800120398406A0199AC
:1007B000D1F8002242EA0020C1F800020398406903
:1007C00000F01F00012101FA00F002900298019947
:1007D000D1F81C2222EA0000C1F81C020398C0696B
:1007E00000281FD1FFE702980199D1F80C2222EAD4
:1007F0000000C1F80C0203988188C268406941EA90
:100800000241019A02EBC000C0F84012039801882F
:100810008268406941EA0241019A02EBC000C0F8D7
:100820004412FFE70398C06901281ED1FFE7029830
:100830000199D1F80C221043C1F80C020398818869
:100840000268406941EA0241019A02EBC000C0F827
:100850004012039881898268406941EA0241019A05
:1008600002EBC000C0F84412FFE70398806900283B
:1008700009D1FFE702980199D1F8042222EA000089
:10088000C1F8040207E002980199D1F8042210434C
:10089000C1F80402FFE703980069002809D1FFE7C7
:1008A00002980199D1F8142222EA0000C1F814023A
:1008B00007E002980199D1F814221043C1F81402FC
:1008C000FFE70398006A012808D1FFE70298019921
:1008D000D1F81C221043C1F81C02FFE70198D0F8A0
:1008E000001221F00101C0F8001200208DF817005D
:1008F00008E00498416A41F48021416201208DF8AA
:100900001700FFE79DF8170006B0704781B0009010
:1009100001B0704786B0049003910292019304984D
:1009200090F820008DF803009DF80300012806D000
:10093000FFE79DF80300022840F0DC80FFE7039802
:10094000002811D1FFE704980068C06880070028DC
:1009500009D1FFE70498416A41F400114162012086
:100960008DF81700CFE010E0049800680069800758
:10097000002809D1FFE70498416A41F4001141625F
:1009800001208DF81700BEE0FFE704980068039986
:1009900000EB0110D0F8B00100F00400029988606B
:1009A0000298806800280BD1FFE70498006803993B
:1009B00000EB0110D0F8B001400D029908600AE088
:1009C00004980068039900EB0110D0F8B001C0084A
:1009D00002994860FFE704980068039900EB011052
:1009E000D0F8B00100F002000299C86004980068D5
:1009F000039900EB0110D0F8B40100F00F00029948
:100A0000086104980068039900EB0110D0F8B40164
:100A100080B2000A0299886104980068039900EB8B
:100A20000110D0F8B401000C0299486104980068E4
:100A3000039900EB0110D0F8B801019908700498EF
:100A40000068039900EB0110D0F8B801000A019981
:100A5000487004980068039900EB0110D0F8B801C1
:100A6000000C0199887004980068039900EB01104C
:100A7000D0F8B801000E0199C87004980068039975
:100A800000EB0110D0F8BC010199087104980068CE
:100A9000039900EB0110D0F8BC01000A01994871DC
:100AA00004980068039900EB0110D0F8BC01000C19
:100AB0000199887104980068039900EB0110D0F83F
:100AC000BC01000E0199C8710398002807D1FFE707
:100AD00004980068C16841F02001C16006E00498F4
:100AE0000068016941F020010161FFE700208DF8F5
:100AF000170008E00498416A41F480214162012016
:100B00008DF81700FFE79DF8170006B0704700004A
:100B100080B58AB009900020089009980068406963
:100B200007900998006840680690099800688068F6
:100B3000059009980068C0680490099800680069E9
:100B4000039009980068806902909DF81C00C00716
:100B5000002800F09780FFE79DF81400C0070028E8
:100B60002BD0FFE709980068012181609DF81400EF
:100B70008007002804D5FFE7099800F03DFD1BE041
:100B80009DF814004007002805D5FFE7089840F4B9
:100B9000006008900FE09DF814000007002805D5BC
:100BA000FFE7089840F48050089003E0099800F0AF
:100BB0001FFDFFE7FFE7FFE7FFE79DF81500C00710
:100BC00000282CD0FFE7099800684FF480718160FD
:100BD0009DF815008007002804D5FFE7099800F06C
:100BE00013FD1BE09DF815004007002805D5FFE721
:100BF000089840F4005008900FE09DF81500000799
:100C0000002805D5FFE7089840F48040089003E0ED
:100C1000099800F0F5FCFFE7FFE7FFE7FFE79DF825
:100C20001600C00700282CD0FFE7099800684FF491
:100C3000803181609DF816008007002804D5FFE709
:100C4000099800F0E9FC1BE09DF816004007002819
:100C500005D5FFE7089840F4004008900FE09DF8A4
:100C600016000007002805D5FFE7089840F48030FB
:100C7000089003E0099800F0CBFCFFE7FFE7FFE7EF
:100C8000FFE7FFE79DF81C000007002810D5FFE7ED
:100C90009DF81000C006002809D5FFE7089840F429
:100CA00000700890099800681021C160FFE7FFE715
:100CB0009DF81C00400700280FD5FFE79DF81000A5
:100CC0000007002808D5FFE7099800680821C160DF
:100CD000099800F0D7FAFFE7FFE79DF81C008007AE
:100CE00000280CD5FFE709980068C0688007002835
:100CF00004D0FFE7099800F0C9FAFFE7FFE79DF885
:100D00001C004006002810D5FFE79DF80C00C00627
:100D1000002809D5FFE7089840F4806008900998FA
:100D2000006810210161FFE7FFE79DF81C008006C5
:100D300000280FD5FFE79DF80C000007002808D514
:100D4000FFE70998006808210161099800F0FEFB9F
:100D5000FFE7FFE79DF81C00C00600280CD5FFE761
:100D60000998006800698007002804D0FFE7099807
:100D700000F0F0FBFFE7FFE79DF81E00800700286A
:100D80000FD5FFE79DF81800C006002808D5FFE73B
:100D90000998006810214160099800F0DFFBFFE727
:100DA000FFE79DF81E00C00700280FD0FFE79DF861
:100DB00018000007002808D5FFE7099800680821F7
:100DC0004160099800F02CFCFFE7FFE79DF81D004B
:100DD0000006002840F18F80FFE79DF818004007CB
:100DE000002840F18380FFE79DF81D00C007002820
:100DF0000BD0FFE79DF80800C007002805D0FFE7EB
:100E0000089840F001000890FFE79DF81D0080075A
:100E100000280BD5FFE79DF808008007002805D5BE
:100E2000FFE7089840F002000890FFE79DF81D00DA
:100E3000400700280BD5FFE79DF808004007002871
:100E400005D5FFE7089840F004000890FFE79DF8FB
:100E50001D000007002848D5FFE79DF8080010F0A6
:100E6000700F42D0FFE7029800F070000146102892
:100E7000019114D0FFE70198202815D0FFE70198D1
:100E8000302816D0FFE70198402817D0FFE70198D7
:100E9000502818D0FFE70198602819D01DE0089865
:100EA00040F00800089019E0089840F01000089001
:100EB00014E0089840F0200008900FE0089840F0F7
:100EC000400008900AE0089840F08000089005E093
:100ED000089840F48070089000E0FFE709980068E7
:100EE000816921F070018161FFE7FFE709980068DF
:100EF00004214160FFE70898002809D0FFE708981F
:100F000009994A6A104348620998FFF7FFFCFFE716
:100F10000AB080BD80B584B002900298002804D148
:100F2000FFE701208DF80F00E2E0029890F8200022
:100F3000002804D1FFE7029800F0DEF8FFE70298EE
:100F40000068016841F00101016001F061F8019061
:100F5000FFE7029800684068C007002815D1FFE746
:100F600001F056F80199401A0B280DD3FFE70298BB
:100F7000416A41F4003141620298052180F8201055
:100F800001208DF80F00B3E0E3E7029800680168E4
:100F900021F00201016001F03BF80190FFE70298A7
:100FA000006840688007002815D5FFE701F030F899
:100FB0000199401A0B280DD3FFE70298416A41F4CA
:100FC000003141620298052180F8201001208DF83F
:100FD0000F008DE0E3E70298007E012807D1FFE7CC
:100FE00002980068016841F08001016006E0029803
:100FF0000068016821F080010160FFE70298407EEF
:10100000012807D1FFE702980068016841F040011C
:10101000016006E002980068016821F0400101606B
:10102000FFE70298807E012807D1FFE70298006859
:10103000016841F02001016006E002980068016843
:1010400021F020010160FFE70298C07E012807D14E
:10105000FFE702980068016821F01001016006E0D6
:1010600002980068016841F010010160FFE70298F2
:10107000007F012807D1FFE702980068016841F06E
:101080000801016006E002980068016821F008018B
:101090000160FFE70298407F012807D1FFE702982F
:1010A0000068016841F00401016006E002980068F0
:1010B000016821F004010160FFE7029801684268BD
:1010C0008368D0F80CC043EA0C03D0F810C043EAA0
:1010D0000C0340691843013A1043C861029800218B
:1010E00041620298012280F820208DF80F10FFE75E
:1010F0009DF80F0004B080BD80B590B00F90002027
:101100000E900D900C900B900A900F98006846F28C
:101110000041C4F2000188424AD1FFE740F2CC000E
:10112000C2F200000168013101600068012812D19B
:10113000FFE7FFE70020099043F64000C4F20200F9
:10114000016841F000710160006800F000700990D2
:101150000998FFE7FFE7FFE70020089043F630001B
:10116000C4F20200016841F008010160006800F06B
:10117000080008900898FFE703200A9002210B91CD
:1011800000210C910D9009200E9040F60040C4F211
:1011900002000AAA0491114600F040FD1420052126
:1011A0000390049A00F0FEFF039800F0EFFF66E062
:1011B0000F98006846F60001C4F2000188425DD134
:1011C000FFE7FFE70020079043F64000C4F202006B
:1011D000016841F080610160006800F08060079064
:1011E0000798FFE740F2CC00C2F20000016801312D
:1011F00001600068012812D1FFE7FFE70020069098
:1012000043F64000C4F20200016841F00071016041
:10121000006800F0007006900698FFE7FFE7FFE720
:101220000020059043F63000C4F20200016841F04E
:1012300002010160006800F0020005900598FFE7D8
:1012400060200A9002200B9000200C9003210D9149
:1012500009210E9140F20041C4F202010AAA029053
:101260000846114600F0DAFC402005210190029A60
:1012700000F098FF019800F089FFFFE7FFE710B04A
:1012800080BD000081B0009001B0704780B58CB087
:101290000B900B98002104AA02ABFFF73BFB0B99C4
:1012A000096846F20042C4F2000291426FD1FFE7A2
:1012B0000498A0F20120032867D8FFE704980138BA
:1012C00040F2C801C2F200010870087800EB80000B
:1012D00040F27802C2F2000202EB800332F82000F2
:1012E00018819DF808009DF8093043EA00200B782A
:1012F00003EB830322F823009DF80A009DF80B30CE
:1013000043EA00200B7803EB830302EB830358804E
:101310009DF80C009DF80D3043EA00200B7803EB9C
:10132000830302EB830398809DF80E000B7803EB98
:10133000830302EB83039871087800EB800002EBD3
:10134000800332F8200000EE100AB8EEC00A9FEDCC
:101350007C1A80EE010A9FED7B1A20EE010A9FEDB8
:101360007A2A30EE020A83ED030A087800EB800047
:1013700002EB8000B0F9021000EE101AB8EEC00ABD
:1013800020EE010A80ED040A00E0FFE7D5E00B98AB
:10139000006846F60001C4F20001884240F0CC80AB
:1013A000FFE7049840F201218842019000F0868016
:1013B000FFE740F202200199814243D0FFE740F26B
:1013C00005200199814240F0B580FFE740F2E80036
:1013D000C2F20000018801819DF808109DF80920E3
:1013E00042EA012101809DF80A109DF80B2042EA93
:1013F000012141809DF80C109DF80D2042EA012149
:1014000081809DF80E108171018800EE101AB8EEEF
:10141000C00A9FED4B1A80EE010A9FED4A1A20EE9A
:10142000010A9FED492A30EE020A80ED030AB0F965
:10143000021000EE101AB8EEC00A20EE010A80ED8C
:10144000040A78E040F26000C2F2000001880181E5
:101450009DF808109DF8092042EA012101809DF8BD
:101460000A109DF80B2042EA012141809DF80C10E2
:101470009DF80D2042EA012181809DF80E108171B6
:10148000018800EE101AB8EEC00A9FED2D1A80EE0A
:10149000010A9FED2C1A20EE010A9FED2B2A30EE57
:1014A000020A80ED030AB0F9021000EE101AB8EE3D
:1014B000C00A20EE010A80ED040A3CE040F2D000B0
:1014C000C2F20000018801819DF808109DF80920F2
:1014D00042EA012101809DF80A109DF80B2042EAA2
:1014E000012141809DF80C109DF80D2042EA012158
:1014F00081809DF80E108171018800EE101AB8EEFF
:10150000C00A9FED0F1A80EE010A9FED0E1A20EE21
:10151000010A9FED0D2A30EE020A80ED030AB0F9B0
:10152000021000EE101AB8EEC00A20EE010A80ED9B
:10153000040A00E0FFE7FFE7FFE70CB080BD00BF53
:1015400000F8FF450000B443000034C381B00090B0
:1015500001B0704781B0009001B0704781B0009039
:1015600001B0704780B584B00290029890F82000D6
:10157000012830D1FFE70298022180F8201002985C
:101580000068016821F00101016000F041FD019057
:10159000FFE7029800684068C007002815D0FFE701
:1015A00000F036FD0199401A0B280DD3FFE7029891
:1015B000416A41F4003141620298052180F820100F
:1015C00001208DF80F000FE0E3E70298002141624F
:1015D0008DF80F1008E00298416A41F40021416241
:1015E00001208DF80F00FFE79DF80F0004B080BDCB
:1015F00081B0009001B0704781B0009001B0704799
:1016000081B0009001B0704781B0009001B0704788
:1016100081B0009001B0704781B0009001B0704778
:1016200081B0009001B0704780B584B002900298FC
:10163000806D019000F0ECFC0090029890F835006D
:1016400002280DD0FFE7029880214165FFE702984C
:10165000002180F83410FFE701208DF80F0059E0D9
:1016600002980068016821F0160101600298006884
:10167000416921F0800141610298006C002805D188
:10168000FFE70298806C002807D0FFE70298006807
:10169000016821F008010160FFE702980068016815
:1016A00021F001010160FFE7029800680068C007AF
:1016B000002819D0FFE700F0ABFC0099401A06287B
:1016C00011D3FFE70298202141650298032180F899
:1016D0003510FFE70298002180F83410FFE703205F
:1016E0008DF80F0016E0DFE70298C06D3F2101FA88
:1016F00000F0019988600298012180F83510FFE719
:101700000298002180F83410FFE7FFE700208DF8F1
:101710000F00FFE79DF80F0004B080BD82B000907D
:10172000009890F83500022807D0FFE70098802144
:10173000416501208DF807000EE00098052180F832
:10174000351000980068016821F001010160FFE791
:1017500000208DF80700FFE79DF8070002B07047F2
:1017600080B586B005900020039040F23C00C2F2A4
:101770000000006848F2B511C1F64E31A0FB01012E
:10178000890A02910599896D01910199096804916D
:101790000499059AD26DD140090700291BD5FFE7AE
:1017A0000598006800684007002813D5FFE70598F2
:1017B0000068016821F0040101600598C06D0821EE
:1017C00001FA00F0019988600598416D41F001012E
:1017D0004165FFE7FFE704980599C96DC840C00758
:1017E000002815D0FFE7059800684069000600282A
:1017F0000DD5FFE70598C06D012101FA00F00199B0
:1018000088600598416D41F002014165FFE7FFE7FF
:1018100004980599C96DC8404007002815D5FFE711
:10182000059800680068800700280DD5FFE7059837
:10183000C06D042101FA00F0019988600598416D9E
:1018400041F004014165FFE7FFE704980599C96D80
:10185000C840C00600284BD5FFE70598006800681F
:101860000007002843D5FFE70598C06D102101FA55
:1018700000F001998860059800680068400300281E
:101880001CD5FFE7059800680068000300280AD40B
:10189000FFE70598006C002804D0FFE70598016C6D
:1018A0008847FFE709E00598806C002804D0FFE72F
:1018B0000598816C8847FFE7FFE717E00598006807
:1018C0000068C005002807D4FFE705980068016894
:1018D00021F008010160FFE70598006C002804D0A2
:1018E000FFE70598016C8847FFE7FFE7FFE7FFE7A1
:1018F00004980599C96DC8408006002840F195807C
:10190000FFE7059800680068C006002840F18C8059
:10191000FFE70598C06D202101FA00F00199886069
:10192000059890F83500052838D1FFE7059800683C
:10193000016821F01601016005980068416921F0F5
:10194000800141610598006C002805D1FFE70598EA
:10195000806C002807D0FFE705980068016821F037
:1019600008010160FFE70598C06D3F2101FA00F012
:10197000019988600598012180F83510FFE70598E6
:10198000002180F83410FFE70598006D002804D08E
:10199000FFE70598016D8847FFE781E0059800683B
:1019A0000068400300281CD5FFE705980068006820
:1019B000000300280AD4FFE70598406C002804D0F3
:1019C000FFE70598416C8847FFE709E00598C06B81
:1019D000002804D0FFE70598C16B8847FFE7FFE7C1
:1019E00021E0059800680068C005002811D4FFE7D1
:1019F00005980068016821F0100101600598012137
:101A000080F83510FFE70598002180F83410FFE7D3
:101A1000FFE70598C06B002804D0FFE70598C16B6D
:101A20008847FFE7FFE7FFE7FFE70598406D0028DD
:101A300036D0FFE70598406DC007002826D0FFE7A5
:101A40000598052180F8351005980068016821F097
:101A500001010160FFE70398013003900299884279
:101A600001D9FFE707E0FFE7059800680068C007B5
:101A70000028F0D1FFE70598012180F83510FFE735
:101A80000598002180F83410FFE7FFE70598C06C47
:101A9000002804D0FFE70598C16C8847FFE7FFE7FF
:101AA00006B080BD80B586B004900020039000F0A1
:101AB000AFFA02900498002804D1FFE701208DF8C6
:101AC0001700A7E00498406A002801D0FFE7FFE76D
:101AD0000498022180F83510FFE70498002180F86F
:101AE0003410FFE704980068016821F001010160EB
:101AF000FFE7049800680068C007002812D0FFE7DD
:101B000000F086FA0299401A06280AD3FFE70498E3
:101B1000202141650498032180F835108DF81710B5
:101B200078E0E6E70498006800680390039848F2BC
:101B30003F01CFF210010840039004984168826889
:101B4000C368D0F810C01143194341EA0C0142693F
:101B5000114382691143C2691143006A0843039922
:101B6000084303900498406A042808D1FFE70498CA
:101B7000C16A006B0843039908430390FFE7039889
:101B80000499096808600498006840690390039804
:101B900020F0070003900498406A039908430390DB
:101BA0000498406A04281CD1FFE70498806A0399CE
:101BB000084303900498C06A002811D0FFE70498F6
:101BC000FEF7EAFB00280AD0FFE7049840214165B0
:101BD0000498012180F835108DF817101AE0FFE7FE
:101BE000FFE703980499096848610498FEF7A8FB89
:101BF00001900498C06D3F2101FA00F001998860BE
:101C00000498002141650498012280F835208DF860
:101C10001710FFE79DF8170006B080BD8EB00D903D
:101C20000C9100200A90099008900B90FFE70B9808
:101C30000F2800F2D281FFE70B98012101FA00F092
:101C40000A900C9800680A990840099009980A9926
:101C5000884240F0BD81FFE70C98406800F0030027
:101C6000012807D0FFE70C98406800F00300022825
:101C70002FD1FFE70D98806808900B984000032152
:101C800001FA00F0089921EA000008900C98C06859
:101C90000B994900884008990843089008980D99C5
:101CA00088600D98406808900B98012101FA00F0B7
:101CB000089921EA000008900C984068C0F30010D1
:101CC0000B99884008990843089008980D99486036
:101CD000FFE70C98406800F00300032818D0FFE7E6
:101CE0000D98C06808900B984000032101FA00F09D
:101CF000089921EA000008900C9880680B99490027
:101D0000884008990843089008980D99C860FFE733
:101D10000C98406800F00300022826D1FFE70D98D8
:101D20000B996FF0030202EA51010844006A08901F
:101D30000B9800F0070080000F2101FA00F00899CD
:101D400021EA000008900C9800690B9901F0070146
:101D50008900884008990843089008980D990B9BC2
:101D600002EA530211440862FFE70D9800680890E8
:101D70000B984000032101FA00F0089921EA0000C5
:101D800008900C98406800F003000B9949008840C7
:101D900008990843089008980D9908600C98807974
:101DA0008007002800F01381FFE7FFE7002007907D
:101DB00043F64400C4F20200016841F4804101602E
:101DC000006800F4804007900798FFE70B9820F028
:101DD000030043F60801C4F20101405808900B9833
:101DE00000F0030080000F2101FA00F0089921EAB9
:101DF000000008900D980021C4F20201884203D12E
:101E0000FFE7002006905EE00D9840F20041C4F22A
:101E10000201884203D1FFE70120059050E00D98B0
:101E200040F60001C4F20201884203D1FFE702201C
:101E3000049042E00D9840F60041C4F2020188424D
:101E400003D1FFE70320039034E00D9841F2000135
:101E5000C4F20201884203D1FFE70420029026E089
:101E60000D9841F20041C4F20201884203D1FFE71C
:101E70000520019018E00D9841F60001C4F202011E
:101E8000884203D1FFE7062000900AE00D9841F652
:101E90000041C4F202010822884208BF07220092D2
:101EA000FFE700980190FFE701980290FFE7029892
:101EB0000390FFE703980490FFE704980590FFE77D
:101EC00005980690FFE70698C0B20B9901F0030150
:101ED0008900884008990843089008980B9921F0D8
:101EE000030143F60802C4F20102885043F6084099
:101EF000C4F20100006808900998089921EA0000DE
:101F000008900C988079C006002805D5FFE709984D
:101F1000089908430890FFE7089843F60841C4F27F
:101F20000101086043F60C40C4F20100006808900B
:101F30000998089921EA000008900C988079800699
:101F4000002805D5FFE70998089908430890FFE79E
:101F5000089843F60C41C4F20101086043F60440BE
:101F6000C4F20100006808900998089921EA00006D
:101F700008900C9880798007002805D5FFE709981C
:101F8000089908430890FFE7089843F60441C4F213
:101F90000101086043F60040C4F2010000680890A7
:101FA0000998089921EA000008900C988079C007E8
:101FB000002805D0FFE70998089908430890FFE733
:101FC000089843F60041C4F201010860FFE7FFE70B
:101FD000FFE70B9801300B9029E60EB07047000028
:101FE00082B00A460190ADF8021001980069BDF870
:101FF0000210084204D0FFE701208DF8010003E041
:1020000000208DF80100FFE79DF8010002B0704745
:1020100044F6B450C2F200000068704740F250002D
:10202000C2F20000007844F6B451C2F200010A681E
:10203000104408607047000080B582B043F600404D
:10204000C4F20200016841F400710160016841F4CA
:1020500080610160016841F480710160032000F03B
:10206000C1F80F2000F006F8019000F063F800209E
:1020700002B080BD80B58EB00C9000200690059017
:102080000C99372202901046029B01921A4600F0EA
:1020900089F8019800F07AF8FFE70020039043F6F2
:1020A0004000C4F20200016841F0200101600068B4
:1020B00000F0200003900398FFE707A804A900F0B0
:1020C000CBF900F0F9F94000069006984DF68361CF
:1020D000C4F21B31A0FB01014FF0FF3202EB914132
:1020E000059140F26441C2F2000141F20042C4F2A3
:1020F00000020A6040F2E732CA60059A4A60002294
:102100000A618A600090084600F06EFE002809D13E
:10211000FFE740F26440C2F2000000F0D9FE8DF803
:10212000370003E001208DF83700FFE79DF8370006
:102130000EB080BD80B582B0FFE70020019043F66D
:102140004400C4F20200016841F48041016000686B
:1021500000F4804001900198FFE7FFE70020009025
:1021600043F64000C4F20200016841F08051016072
:10217000006800F0805000900098FFE76FF00100C9
:102180000F21002200F00EF802B080BD80B582B0B1
:1021900001468DF807009DF90700009103F00CFB44
:1021A00002B080BD80B588B003468DF81F0006914F
:1021B000059200200490039303F018FB04909DF90E
:1021C0001F000499069A059B0290084611461A467C
:1021D00002F090F9029901900846019903F00EFB74
:1021E00008B080BD80B582B00190019803F028FB53
:1021F00002B080BD80B584B00290019102980028A1
:1022000004D1FFE701208DF80F0021E1019843F68A
:102210000041C4F20201096801F00701884212D9A5
:10222000FFE7019843F60041C4F202010870086814
:1022300000F007000199884204D0FFE701208DF8E3
:102240000F0005E1FFE702980078800700282AD5F3
:10225000FFE7029800784007002809D5FFE743F61A
:102260000800C4F20200016841F4E0510160FFE798
:10227000029800780007002809D5FFE743F6080018
:10228000C4F20200016841F460410160FFE743F6D7
:102290000800C4F20200016821F0F001029A92687D
:1022A00011430160FFE702980078C00700286ED054
:1022B000FFE702984068012811D1FFE743F60000CC
:1022C000C4F20200006800F400300021B1EB504F6E
:1022D00004D1FFE701208DF80F00B9E02CE002984F
:1022E0004068022805D0FFE702984068032811D112
:1022F000FFE743F60000C4F20200006800F000703F
:102300000021B1EB506F04D1FFE701208DF80F00E1
:102310009EE010E043F60000C4F20200006800F006
:1023200002000021B1EB500F04D1FFE701208DF82E
:102330000F008DE0FFE7FFE743F60800C4F202005C
:10234000016821F00301029A526811430160FFF70E
:102350005FFE0090FFE743F60800C4F20200006849
:1023600000F00C0002994968B0EB810F0ED0FFE736
:10237000FFF74EFE0099401A41F28931884204D39A
:10238000FFE703208DF80F0062E0E4E7FFE7019824
:1023900043F60041C4F20201096801F007018842D6
:1023A00012D2FFE7019843F60041C4F2020108701F
:1023B000086800F007000199884204D0FFE7012077
:1023C0008DF80F0044E0FFE70298007840070028EE
:1023D0000CD5FFE743F60800C4F20200016821F4BF
:1023E000E051029AD26811430160FFE70298007839
:1023F000000700280DD5FFE743F60800C4F20200ED
:10240000016821F46041029A126941EAC201016047
:10241000FFE700F075F843F60801C4F2020109680D
:10242000C9B2090948F2F402C0F60002515CC84082
:1024300040F23C01C2F20001086040F25400C2F2D6
:1024400000000068FFF716FE00218DF80F10FFE76F
:102450009DF80F0004B080BD82B0019000910198FA
:102460000F21016043F60800C4F20200016801F088
:102470000301019A5160016801F0F001019A916035
:10248000016801F4E051019AD160006800F46040F5
:10249000C0080199086143F60040C4F202000068D8
:1024A00000F007000099086002B0704740F23C005D
:1024B000C2F200000068704780B5FFF7F7FF43F6EF
:1024C0000801C4F202010968C1F3822148F2041232
:1024D000C0F60002515CC84080BD000080B5FFF727
:1024E000E5FF43F60801C4F20201096889B2490B0D
:1024F00048F20412C0F60002515CC84080BD0000E2
:1025000080B586B00020059004900390029043F6B9
:102510000800C4F20200006800F00C000146002828
:10252000019108D0FFE7019804280AD0FFE701983D
:1025300008280CD04FE042F20040C0F2F4000290B4
:102540004FE041F60030C0F2B700029049E043F698
:102550000400C4F20200016801F03F010591006827
:102560004002002813D5FFE743F60400C4F202003E
:102570000068C0F3881041F60031C0F2B701A0FB3B
:102580000101059A0023FDF71BFE049012E043F6BB
:102590000400C4F202000068C0F3881042F2004157
:1025A000C0F2F401A0FB0101059A0023FDF708FE2B
:1025B0000490FFE743F60400C4F20200006800F450
:1025C0004030022101EBD030039004980399B0FB16
:1025D000F1F0029005E042F20040C0F2F4000290F7
:1025E000FFE7029806B080BD80B586B004900498DD
:1025F000002804D1FFE701208DF8170055E3049867
:102600000078C007002800F0A780FFE743F6080025
:10261000C4F20200006800F00C00042813D0FFE7A9
:1026200043F60800C4F20200006800F00C0008281D
:102630001FD1FFE743F60400C4F202000068400225
:10264000002816D5FFE743F60000C4F20200006838
:1026500000F400300021B1EB504F09D0FFE704989F
:102660004068002804D1FFE701208DF817001CE323
:1026700071E0FFE704984068B0F5803F09D1FFE7BB
:1026800043F60000C4F20200016841F480310160A9
:1026900020E004984068B0F5A02F0DD1FFE743F685
:1026A0000000C4F20200016841F480210160016869
:1026B00041F4803101600CE043F60000C4F20200F6
:1026C000016821F480310160016821F480210160FA
:1026D000FFE7FFE7FFE70498406800281DD0FFE709
:1026E000FFF796FC0390FFE743F60000C4F20200F8
:1026F000006800F400300021B1EB504F0CD1FFE72F
:10270000FFF786FC0399401A652804D3FFE70320EE
:102710008DF81700C9E2E7E71CE0FFF779FC0390AA
:10272000FFE743F60000C4F20200006800F4003046
:102730000021B1EB504F0CD0FFE7FFF769FC039984
:10274000401A652804D3FFE703208DF81700ACE298
:10275000E7E7FFE7FFE7FFE7049800788007002836
:1027600040F19780FFE743F60800C4F202000068DA
:1027700010F00C0F13D0FFE743F60800C4F202007C
:10278000006800F00C0008282CD1FFE743F6040095
:10279000C4F2020000684002002823D4FFE743F699
:1027A0000000C4F20200006800F002000021B1EB5A
:1027B000500F09D0FFE70498C068012804D0FFE754
:1027C00001208DF8170070E243F60000C4F2020009
:1027D000016821F0F801049A126941EAC20101601E
:1027E000FFE755E00498C06800282ED0FFE70020DE
:1027F000C4F2472001210160FFF70AFC0390FFE7C4
:1028000043F60000C4F20200006800F0020000215C
:10281000B1EB500F0CD1FFE7FFF7FAFB0399401A19
:10282000032804D3FFE703208DF817003DE2E7E714
:1028300043F60000C4F20200016821F0F801049A96
:10284000126941EAC201016021E00020C4F2472080
:1028500000210160FFF7DCFB0390FFE743F6000077
:10286000C4F20200006800F002000021B1EB500F3A
:102870000CD0FFE7FFF7CCFB0399401A032804D3E1
:10288000FFE703208DF817000FE2E7E7FFE7FFE718
:10289000FFE704980078000700284CD5FFE704986C
:1028A0004069002823D0FFE740F68060C4F247204B
:1028B00001210160FFF7ACFB0390FFE743F67400D2
:1028C000C4F20200006800F002000021B1EB500FDA
:1028D0000CD1FFE7FFF79CFB0399401A032804D3B0
:1028E000FFE703208DF81700DFE1E7E722E040F67D
:1028F0008060C4F2472000210160FFF789FB03904C
:10290000FFE743F67400C4F20200006800F0020022
:102910000021B1EB500F0CD0FFE7FFF779FB0399D3
:10292000401A032804D3FFE703208DF81700BCE109
:10293000E7E7FFE7FFE7049800784007002840F149
:10294000CF80FFE700208DF8070043F64000C4F277
:1029500002000068C000002815D4FFE7FFE7002050
:10296000009043F64000C4F20200016841F080513B
:102970000160006800F0805000900098FFE701209F
:102980008DF80700FFE747F20000C4F2000000687E
:10299000C005002822D4FFE747F20000C4F200007F
:1029A000016841F480710160FFF732FB0390FFE79B
:1029B00047F20000C4F200000068C00500280CD4F3
:1029C000FFE7FFF725FB0399401A032804D3FFE72D
:1029D00003208DF8170068E1EAE7FFE7FFE70498B6
:1029E0008068012809D1FFE743F67000C4F20200B5
:1029F000016841F0010101601FE00498806805282A
:102A00000DD1FFE743F67000C4F20200016841F007
:102A100004010160016841F0010101600CE043F62E
:102A20007000C4F20200016821F001010160016838
:102A300021F004010160FFE7FFE7FFE704988068E9
:102A400000281FD0FFE7FFF7E3FA0390FFE743F604
:102A50007000C4F20200006800F002000021B1EB37
:102A6000500F0ED1FFE7FFF7D3FA0399401A41F256
:102A70008931884204D3FFE703208DF8170014E161
:102A8000E5E71EE0FFF7C4FA0390FFE743F67000A6
:102A9000C4F20200006800F002000021B1EB500F08
:102AA0000ED0FFE7FFF7B4FA0399401A41F28931DB
:102AB000884204D3FFE703208DF81700F5E0E5E72F
:102AC000FFE79DF80700012809D1FFE743F6400022
:102AD000C4F20200016821F080510160FFE7FFE7C6
:102AE00004988069002800F0DC80FFE743F60800C6
:102AF000C4F20200006800F00C00082800F0858095
:102B0000FFE70498806902285CD1FFE76020C4F2E7
:102B1000472000210160FFF77BFA0390FFE743F6AF
:102B20000000C4F20200006800F000700021B1EB68
:102B3000506F0CD0FFE7FFF76BFA0399401A032898
:102B400004D3FFE703208DF81700AEE0E7E7049811
:102B5000C169026A436AD0F828C0114341EA83116F
:102B60004FEACC324FF6FF739A43A2F580321143FD
:102B7000C06A41EA006043F60401C4F20201086041
:102B80006020C4F2472001210160FFF741FA039061
:102B9000FFE743F60000C4F20200006800F0007096
:102BA0000021B1EB506F0CD1FFE7FFF731FA039929
:102BB000401A032804D3FFE703208DF8170074E0C0
:102BC000E7E721E06020C4F2472000210160FFF721
:102BD0001FFA0390FFE743F60000C4F2020000680A
:102BE00000F000700021B1EB506F0CD0FFE7FFF751
:102BF0000FFA0399401A032804D3FFE703208DF846
:102C0000170052E0E7E7FFE74AE0049880690128EF
:102C100004D1FFE701208DF8170046E043F60400D9
:102C2000C4F202000068029004988069012831D043
:102C3000FFE7029800F480000499C969884229D10D
:102C4000FFE7029800F03F000499096A884221D109
:102C5000FFE7029847F6C07108400499496AB0EB53
:102C6000811F17D1FFE7029800F440300499896A68
:102C7000C9034FF6FF729143A1F58031884209D113
:102C8000FFE7029800F070600499C96AB0EB016F29
:102C900004D0FFE701208DF8170006E0FFE7FFE70B
:102CA000FFE700208DF81700FFE79DF8170006B03A
:102CB00080BD000081B0009001B0704781B00090ED
:102CC00001B0704785B003900291FFE7039890F838
:102CD0003C00012804D1FFE702208DF813007EE0BC
:102CE0000398012180F83C10FFE7FFE703980221D9
:102CF00080F83D10039800684068019003980068D0
:102D000080680090019820F070000190029800689F
:102D10000199084301900198039909684860039854
:102D200000680021C4F2010188423CD0FFE703980B
:102D30000068B0F1804F36D0FFE70398006840F29A
:102D40000041C4F2000188422DD0FFE703980068DB
:102D500040F60001C4F20001884224D0FFE7039846
:102D6000006840F60041C4F2000188421BD0FFE732
:102D70000398006840F20041C4F20101884212D079
:102D8000FFE70398006844F20001C4F201018842A1
:102D900009D0FFE70398006841F60001C4F2000182
:102DA00088420ED1FFE7009820F080000090029842
:102DB000406800990843009000980399096888606A
:102DC000FFE70398012180F83D10FFE703980021F9
:102DD00080F83C10FFE700208DF81300FFE79DF816
:102DE000130005B07047000080B584B002900298CF
:102DF000002804D1FFE701208DF80F0043E002987E
:102E000090F83D00002808D1FFE70298002180F8E3
:102E10003C10029800F03CF8FFE70298022180F88D
:102E20003D10029850F8041B01900846019901F0EA
:102E3000C5FE0298012180F84610FFE702980121A3
:102E400080F83E10029880F83F10029880F84010F9
:102E5000029880F84110FFE7FFE70298012180F80F
:102E60004210029880F84310029880F844100298AB
:102E700080F84510FFE70298012180F83D100020FE
:102E80008DF80F00FFE79DF80F0004B080BD000033
:102E900082B001900198006844F20041C4F201013F
:102EA000884212D1FFE7FFE70020009043F644007C
:102EB000C4F20200016841F400310160006800F4CE
:102EC000003000900098FFE7FFE702B07047000075
:102ED00083B00190019890F83D00012804D0FFE7ED
:102EE00001208DF80B006AE00198022180F83D1066
:102EF00001980068C16841F00101C1600198006853
:102F00000021C4F2010188423CD0FFE7019800682B
:102F1000B0F1804F36D0FFE70198006840F20041E1
:102F2000C4F2000188422DD0FFE70198006840F606
:102F30000001C4F20001884224D0FFE70198006834
:102F400040F60041C4F2000188421BD0FFE701981F
:102F5000006840F20041C4F20101884212D0FFE74C
:102F60000198006844F20001C4F20101884209D0CE
:102F7000FFE70198006841F60001C4F200018842B1
:102F800012D1FFE701980068806800F00700009008
:102F90000098062807D0FFE701980068016841F013
:102FA00001010160FFE706E001980068016841F057
:102FB00001010160FFE700208DF80B00FFE79DF89D
:102FC0000B0003B07047000081B0009001B0704763
:102FD00080B582B0019001980068006900F002009D
:102FE0000021B1EB500F29D0FFE701980068C068BD
:102FF00000F002000021B1EB500F1ED0FFE7019856
:1030000000686FF0020101610198012101770198C8
:10301000006880698007002804D0FFE70198FFF767
:10302000D3FF06E0019800F04BF9019800F062FA36
:10303000FFE7019800210177FFE7FFE701980068AB
:10304000006900F004000021B1EB900F29D0FFE7E8
:1030500001980068C06800F004000021B1EB900FF7
:103060001ED0FFE7019800686FF00401016101982C
:103070000221017701980068806910F4407F04D034
:10308000FFE70198FFF7A0FF06E0019800F018F9AC
:10309000019800F02FFAFFE7019800210177FFE780
:1030A000FFE701980068006900F008000021B1EB1B
:1030B000D00F29D0FFE701980068C06800F0080031
:1030C0000021B1EBD00F1ED0FFE7019800686FF030
:1030D0000801016101980421017701980068C06925
:1030E0008007002804D0FFE70198FFF76DFF06E096
:1030F000019800F0E5F8019800F0FCF9FFE701986D
:1031000000210177FFE7FFE701980068006900F000
:1031100010000021B1EB101F29D0FFE701980068D3
:10312000C06800F010000021B1EB101F1ED0FFE7B7
:10313000019800686FF01001016101980821017782
:1031400001980068C06910F4407F04D0FFE701983F
:10315000FFF73AFF06E0019800F0B2F8019800F09E
:10316000C9F9FFE7019800210177FFE7FFE7019820
:1031700000680069C007002811D0FFE701980068C7
:10318000C068C007002809D0FFE7019800686FF009
:1031900001010161019800F099FAFFE7FFE701984A
:1031A00000680069C0B20021B1EBD01F13D0FFE767
:1031B00001980068C068C0B20021B1EBD01F09D0EF
:1031C000FFE7019800686FF0800101610198FFF747
:1031D00071FDFFE7FFE701980068006900F040001B
:1031E0000021B1EB901F14D0FFE701980068C06880
:1031F00000F040000021B1EB901F09D0FFE70198DB
:1032000000686FF040010161019800F071FAFFE77A
:10321000FFE701980068006900F020000021B1EB91
:10322000501F14D0FFE701980068C06800F020002C
:103230000021B1EB501F09D0FFE7019800686FF043
:10324000200101610198FFF739FDFFE7FFE702B0B8
:1032500080BD000080B588B00790002006900590E2
:103260000490039002900798006840F60041C4F271
:103270000001884222D1FFE7FFE70020019043F6DA
:103280003000C4F20200016841F080010160006872
:1032900000F0800001900198FFE74FF4E0500290A9
:1032A00002200390002104910591069041F6004010
:1032B000C4F2020002A9FEF7B1FCFFE708B080BD2E
:1032C00081B0009001B0704780B586B00490039142
:1032D000029200208DF80700FFE7049890F83C0068
:1032E000012804D1FFE702208DF8170089E0049837
:1032F000012180F83C10FFE7FFE702980C280090BE
:1033000000F270800099DFE801F0076D6D6D206DAF
:103310006D6D3A6D6D6D530004980068039901F06E
:1033200037FD04980068816941F0080181610498C3
:103330000068816921F004018161039800690499A2
:1033400009688A691043886150E00498006803990D
:1033500001F094FD04980068816941F40061816185
:1033600004980068816921F4806181610398006993
:10337000049909688A6942EA0020886136E0049865
:103380000068039901F0F4FD04980068C16941F0F8
:103390000801C16104980068C16921F00401C1619C
:1033A0000398006904990968CA691043C8611DE05F
:1033B00004980068039901F055FE04980068C169FB
:1033C00041F40061C16104980068C16921F4806121
:1033D000C1610398006904990968CA6942EA00203A
:1033E000C86103E001208DF80700FFE7FFE70498BC
:1033F000002180F83C10FFE79DF807008DF81700CA
:10340000FFE79DF8170006B080BD000080B584B0CE
:1034100002900298002804D1FFE701208DF80F00E8
:1034200043E0029890F83D00002808D1FFE7029899
:10343000002180F83C10029800F03CF8FFE7029869
:10344000022180F83D10029850F8041B01900846B4
:10345000019901F0B3FB0298012180F84610FFE7C3
:103460000298012180F83E10029880F83F100298DF
:1034700080F84010029880F84110FFE7FFE70298BB
:10348000012180F84210029880F84310029880F8D9
:103490004410029880F84510FFE70298012180F857
:1034A0003D1000208DF80F00FFE79DF80F0004B0DD
:1034B00080BD000082B001900198006840F6004194
:1034C000C4F20001884212D1FFE7FFE7002000901C
:1034D00043F64000C4F20200016841F008010160B7
:1034E000006800F0080000900098FFE7FFE702B0D6
:1034F0007047000081B0009001B0704780B58CB07B
:103500000A9009910998002805D1FFE70A9890F8D8
:103510003E0007901CE00998042805D1FFE70A98AF
:1035200090F83F00069010E00998082805D1FFE7C1
:103530000A9890F84000059004E00A9890F841003D
:103540000590FFE705980690FFE706980790FFE7CC
:103550000798012804D0FFE701208DF82F00B1E083
:103560000998002805D1FFE70A98022180F83E104B
:103570001EE00998042806D1FFE70A98022180F886
:103580003F10049112E00998082806D1FFE70A9835
:10359000022180F84010039105E00A98022180F88A
:1035A00041100391FFE703980490FFE70498FFE7B9
:1035B0000A98006809990122029201F0CDFB0A984D
:1035C000006802990022C4F20102904201910CD0DD
:1035D000FFE70A9800684FF60041CBF6FE710844F9
:1035E000B0FA80F040090190FFE70198C007002879
:1035F00007D0FFE70A980068416C41F4004141643C
:10360000FFE70A9800680021C4F2010188423CD01B
:10361000FFE70A980068B0F1804F36D0FFE70A98BC
:10362000006840F20041C4F2000188422DD0FFE75B
:103630000A98006840F60001C4F20001884224D0D4
:10364000FFE70A98006840F60041C4F20001884292
:103650001BD0FFE70A98006840F20041C4F2010164
:10366000884212D0FFE70A98006844F20001C4F2D1
:103670000101884209D0FFE70A98006841F600017D
:10368000C4F20001884212D1FFE70A9800688068FE
:1036900000F0070008900898062807D0FFE70A986E
:1036A0000068016841F001010160FFE706E00A9847
:1036B0000068016841F001010160FFE700208DF81A
:1036C0002F00FFE79DF82F000CB080BD80B582B0C1
:1036D00001900198006841F20041C4F20001884263
:1036E00003D1FFE7FEF79AFCFFE702B080BD0000C0
:1036F00081B0009001B0704782B00A460190ADF8E9
:10370000021002B07047000081B0009001B0704715
:1037100080B592B0119011980068006810901198CF
:103720000068C0680F901198006840690E900020F2
:103730000D900C90109800F00F000D900D9800283F
:1037400011D1FFE79DF84000800600280AD5FFE769
:103750009DF83C008006002804D5FFE7119801F091
:1037600041FDEBE1FFE70D98002800F0CA80FFE77C
:103770009DF83800C007002807D1FFE7BDF83C00DE
:1037800010F4907F00F0BD80FFE79DF84000C00777
:1037900000280CD0FFE79DF83D00C007002806D0A8
:1037A000FFE71198016C41F001010164FFE79DF80A
:1037B0004000400700280CD5FFE79DF83800C007FF
:1037C000002806D0FFE71198016C41F00201016466
:1037D000FFE79DF84000800700280CD5FFE79DF823
:1037E0003800C007002806D0FFE71198016C41F0AF
:1037F00004010164FFE79DF840000007002812D58E
:10380000FFE79DF83C008006002806D4FFE79DF8FE
:103810003800C007002806D0FFE71198016C41F07E
:1038200008010164FFE71198006C002868D0FFE7E9
:103830009DF84000800600280AD5FFE79DF83C006F
:103840008006002804D5FFE7119801F0CBFCFFE7C4
:10385000119800684069C0F380100C901198006CBA
:103860000007002804D4FFE70C98002840D0FFE7A9
:10387000119801F059FC1198006840694006002831
:1038800031D5FFE7FFE7FFE71198006850E8050F23
:1038900020F040000B90FFE70B981199096841E870
:1038A0000502002AF0D1FFE7FFE71198806B00289E
:1038B00014D0FFE71198806B45F20911C0F60001A2
:1038C00001651198806BFDF729FF002805D0FFE7FF
:1038D0001198806B016D8847FFE703E01198FFF7AF
:1038E00013FFFFE703E01198FFF70EFFFFE706E085
:1038F0001198FFF709FF119800210164FFE7FFE726
:103900001CE11198006B012840F0F880FFE79DF85A
:103910004000C006002840F1F180FFE79DF83C0020
:10392000C006002840F1EA80FFE7FFE700200A9088
:103930001198006800680A901198006840680A9021
:103940000A98FFE7119800684069400600287ED574
:10395000FFE71198806B00684068ADF82600BDF85D
:103960002600002872D0FFE7BDF826001199898D46
:1039700088426BDAFFE7BDF826001199C8851198D7
:10398000806BC069B0F5807F58D0FFE7FFE7FFE7A5
:103990001198006850E8030F20F480700890FFE74A
:1039A00008981199096841E80302002AF0D1FFE75D
:1039B000FFE7FFE7FFE71198006850E8050F20F0E8
:1039C00001000790FFE707981199096841E805028F
:1039D000002AF0D1FFE7FFE7FFE7FFE71198006853
:1039E00050E8050F20F040000690FFE70698119977
:1039F000096841E80502002AF0D1FFE7FFE71198C6
:103A0000202180F83E10119800210163FFE7FFE7B5
:103A10001198006850E8030F20F010000590FFE7B0
:103A200005981199096841E80302002AF0D1FFE7DF
:103A3000FFE71198806BFDF7F7FDFFE71198818D87
:103A4000C28D891A89B2FFF757FEFFE776E0119819
:103A5000818DC08D081AADF812001198C08D002814
:103A60004BD0FFE7BDF81200002846D0FFE7FFE784
:103A7000FFE71198006850E8030F20F4907003905E
:103A8000FFE703981199096841E80302002AF0D181
:103A9000FFE7FFE7FFE7FFE71198006850E8050F31
:103AA00020F001000290FFE702981199096841E8AF
:103AB0000502002AF0D1FFE7FFE71198202180F8E6
:103AC0003E10119800210163FFE7FFE7119800689D
:103AD00050E8030F20F010000190FFE701981199C2
:103AE000096841E80302002AF0D1FFE7FFE71198D7
:103AF000BDF81210FFF700FEFFE71FE09DF8400041
:103B0000000600280AD5FFE79DF83C0000060028C3
:103B100004D5FFE7119801F0C7FC0FE09DF84000C5
:103B2000400600280AD5FFE79DF83C004006002823
:103B300004D5FFE7119801F041FBFFE712B080BD0B
:103B400080B582B000900098002804D1FFE70120E2
:103B50008DF8070040E000988069002801D0FFE759
:103B600000E0FFE7009890F83D00002808D1FFE74B
:103B70000098002180F83C10009800F031F8FFE731
:103B80000098242180F83D1000980068C16821F455
:103B90000051C160009801F0DBFB009800680169EA
:103BA00021F49041016100980068416921F02A01E7
:103BB000416100980068C16841F40051C1600098FB
:103BC000002101640098202280F83D20009880F8B0
:103BD0003E208DF80710FFE79DF8070002B080BD7A
:103BE00080B598B0179000201690159014901390FF
:103BF00012901798006841F20001C4F20101884256
:103C000040F0BC80FFE7FFE70020119043F644003E
:103C1000C4F20200016841F010010160006800F088
:103C2000100011901198FFE7FFE70020109043F675
:103C30003000C4F20200016841F002010160006836
:103C400000F0020010901098FFE7FFE700200F90AF
:103C500043F63000C4F20200016841F00101016046
:103C6000006800F001000F900F98FFE7802012908D
:103C7000022013900021149103221592072316931A
:103C800040F2004CC4F2020C0DF1480E0A9060465E
:103C90000991714608920793CDF818E0FDF7BEFF31
:103CA0004FF4007012900A98139009991491089A91
:103CB0001592079B16930020C4F202000699FDF7A7
:103CC000ADFF40F25420C2F2000046F2B841C4F207
:103CD000020101604FF0006141604021816009995B
:103CE000C1604FF48062026141618161C161016222
:103CF0004162FDF7D7FE002803D0FFE7FCF7D4FBB5
:103D0000FFE7FFE7179840F25421C2F20001416338
:103D100017988863FFE740F2F410C2F2000046F201
:103D20004041C4F2020101604FF000614160002196
:103D30008160C1604FF48062026141618161C16153
:103D400001624162FDF7AEFE002803D0FFE7FCF7F9
:103D5000ABFBFFE7FFE7179840F2F411C2F2000156
:103D6000816317988863FFE72520052100220590CD
:103D7000FEF718FA0598FEF709FA12E1179800689D
:103D800044F60001C4F2000188426AD1FFE7FFE770
:103D900000200E9043F64000C4F20200016841F496
:103DA00080210160006800F480200E900E98FFE7EB
:103DB000FFE700200D9043F63000C4F202000168D6
:103DC00041F004010160006800F004000D900D98BE
:103DD000FFE74FF4406012900220139000201490EF
:103DE000032115910721169140F60001C4F202014A
:103DF00012AA049008461146FDF710FF40F2B420C5
:103E0000C2F2000046F22801C4F2020101604FF044
:103E10000061416004998160C1604FF48062026179
:103E200041618161C16101624162FDF73BFE002891
:103E300003D0FFE7FCF738FBFFE7FFE7179840F2F6
:103E4000B421C2F20001816317988863FFE727203D
:103E5000052100220390FEF7A5F90398FEF796F9D5
:103E60009EE01798006841F20041C4F201018842C7
:103E700040F09580FFE7FFE700200C9043F64400F8
:103E8000C4F20200016841F020010160006800F006
:103E900020000C900C98FFE7FFE700200B9043F602
:103EA0003000C4F20200016841F040010160006886
:103EB00000F040000B900B98FFE74FF48440129005
:103EC00002201390002014900321159108211691CF
:103ED00041F60001C4F2020112AA029008461146FE
:103EE000FDF79CFE40F21430C2F2000046F2284179
:103EF000C4F2020101604FF02061416002998160CB
:103F0000C1604FF48062026141618161C1610162FF
:103F10004162FDF7C7FD002803D0FFE7FCF7C4FAB4
:103F2000FFE7FFE7179840F21431C2F20001816306
:103F300017988863FFE740F27430C2F2000046F23F
:103F4000A041C4F2020101604FF0206141604021B4
:103F500081600021C1604FF4806202614161816132
:103F6000C16101624162FDF79DFD002803D0FFE7BA
:103F7000FCF79AFAFFE7FFE7179840F27431C2F2B4
:103F80000001416317988863FFE74720052100225D
:103F90000190FEF707F90198FEF7F8F8FFE7FFE751
:103FA000FFE718B080BD000081B0009001B07047FD
:103FB00081B0009001B07047FFE7FEE780B540F2A6
:103FC000A410C2F2000046F20041C4F200010160F8
:103FD0000321416000218160C1604FF41022026121
:103FE0004FF400124261017641768176C176017705
:103FF0004177FCF78FFF002803D0FFE7FCF754FA66
:10400000FFE780BD80B540F2CC10C2F2000046F65A
:104010000001C4F2000101600321416000218160C0
:10402000C1604FF4102202614FF400124261017628
:1040300041768176C17601774177FCF76BFF0028E6
:1040400003D0FFE7FCF730FAFFE780BD80B58AB008
:10405000FFE70020099043F63000C4F20200016837
:1040600041F480010160006800F480000990099823
:10407000FFE7FFE70020089043F63000C4F202009B
:10408000016841F400110160006800F4001008901C
:104090000898FFE70C200521002207900691059261
:1040A000FEF780F80798FEF771F83920049006991A
:1040B000059AFEF777F80498FEF768F83A2003901F
:1040C0000699059AFEF76EF80398FEF75FF845200B
:1040D00002900699059AFEF765F80298FEF756F8E1
:1040E000462001900699059AFEF75CF80198FEF7C4
:1040F0004DF80AB080BD000010B59EB048F2A00097
:10410000C0F60000016842688368D0F80CC0D0F89F
:1041100010E044691C94CDF86CE0CDF868C01993A8
:104120001892179180691D9017A80021019101F044
:10413000FFFD40F25C11C2F20001086048F2D800B5
:10414000C0F60000016842688368D0F80CC0D0F85F
:1041500010E044691594CDF850E0CDF84CC01293AE
:10416000119210918069169010A8019901F0E0FD5C
:1041700040F69451C2F20001086048F28400C0F693
:104180000000016842688368D0F80CC0D0F810E0E5
:1041900044690E94CDF834E0CDF830C00B930A9208
:1041A000099180690F9009A8019901F0C1FD40F2C1
:1041B0007401C2F20001086048F2BC00C0F60000C1
:1041C000016842688368D0F80CC0D0F810E04469F8
:1041D0000794CDF818E0CDF814C00493039202912F
:1041E0008069089002A8019901F0A2FD40F23C61AB
:1041F000C2F2000108601EB010BD000080B58CB096
:1042000000200B900A90099008900790FFE700208B
:10421000069043F63000C4F20200016841F002014A
:104220000160006800F0020006900698FFE7FFE7D3
:104230000020059043F63000C4F20200016841F00E
:1042400040010160006800F0400005900598FFE71C
:10425000FFE70020049043F63000C4F2020001683A
:1042600041F001010160006800F001000490049831
:10427000FFE7FFE70020039043F63000C4F202009E
:10428000016841F008010160006800F00800039037
:104290000398FFE7FFE70020029043F63000C4F2E6
:1042A0000200016841F004010160006800F00400B0
:1042B00002900298FFE7FFE70020019043F63000EC
:1042C000C4F20200016841F480710160006800F4EA
:1042D000807001900198FFE7FFE70020009043F60F
:1042E0003000C4F20200016841F080010160006802
:1042F00000F0800000900098FFE7C02007900020A9
:1043000008900120099042F20000C4F2020007A9BF
:10431000FDF784FC0CB080BD80B540F2D430C2F211
:10432000000044F20041C4F201010160002141603B
:10433000816041F28732C26001618161FEF754FD04
:10434000002803D0FFE7FCF7AFF8FFE780BD0000CF
:1043500080B58AB0002009900890079006900590DB
:10436000049003900290019040F21C41C2F20001BF
:1043700040F60042C4F200020A60486088604FF0D4
:10438000FF32CA60086188610846FFF73FF80028DD
:1043900003D0FFE7FCF788F8FFE7002008900990BA
:1043A00040F21C40C2F2000008A9FEF78BFC002876
:1043B00003D0FFE7FCF778F8FFE7602001900020CA
:1043C00002900390059040F21C41C2F2000101AA44
:1043D000009008461146009AFEF776FF002803D0A9
:1043E000FFE7FCF761F8FFE740F21C40C2F2000073
:1043F00001A90422FEF768FF002803D0FFE7FCF7BD
:1044000053F8FFE740F21C40C2F2000001A9082265
:10441000FEF75AFF002803D0FFE7FCF745F8FFE757
:1044200040F21C40C2F20000FEF714FF0AB080BD4B
:1044300080B540F2AC40C2F2000041F20001C4F28B
:10444000010101604FF4E131416000218160C160F0
:1044500001610C2242618161C161FFF771FB00289B
:1044600003D0FFE7FCF720F8FFE780BD80B540F2FE
:10447000F040C2F2000044F60001C4F20001016005
:1044800048F2A061C0F20101416000218160C16079
:104490004FF4806202610C2242618161C161FFF7C9
:1044A0004FFB002803D0FFE7FBF7FEFFFFE780BDCF
:1044B00080B540F23450C2F2000041F20041C4F233
:1044C000010101604FF4E131416000218160C16070
:1044D00001610C2242618161C161FFF731FB00285B
:1044E00003D0FFE7FBF7E0FFFFE780BDFFE7FEE754
:1044F000FFE7FEE788B0079006910592079800F065
:10450000070004900498C0F10700052803D3FFE7D3
:104510000420019004E00498C0F107000190FFE737
:104520000198039004980430062803D8FFE7002080
:10453000009003E0049803380090FFE70098029091
:1045400006980399012202FA01F101390840029903
:104550008840059B02FA01F101391940084308B06F
:104560007047000084B002908DED010ACDED000A85
:104570000298002803D1FFE70020039015E102987C
:10458000016C41640298C16B0164009802998861D2
:1045900001980299C8619DED000A9DED011A30EE67
:1045A000410A029880ED0F0A02980078002840F036
:1045B0008780FFE7029890ED010A90ED0F1A20EE38
:1045C000010A80ED090A029890ED020A90ED0A1A9C
:1045D00090ED0F2A20EE020A31EE000A80ED0A0A61
:1045E0000298416B81630298016B4163029890EDE0
:1045F0000F0A90ED101A30EE410A80ED0C0A029875
:1046000090ED030A90ED0C1A20EE010A80ED0B0AE2
:10461000029890ED050A90ED0A1AB4EE401AF1EEF8
:1046200010FA04DDFFE702984169816215E0029803
:1046300090ED050A90ED0A1AB1EE400AB4EE401A68
:10464000F1EE10FA08DAFFE7029890ED050AB1EEF4
:10465000400A80ED0A0AFFE7FFE7029890ED090A99
:1046600090ED0A1A90ED0B2A30EE010A30EE020AA4
:1046700080ED080A029890ED040A90ED081AB4EE55
:10468000401AF1EE10FA04DDFFE7029801690162B9
:1046900015E0029890ED040A90ED081AB1EE400A78
:1046A000B4EE401AF1EE10FA08DAFFE7029890ED46
:1046B000040AB1EE400A80ED080AFFE7FFE770E068
:1046C0000298007801286BD1FFE7029890ED010A6B
:1046D00090ED0F1A90ED102A31EE421A20EE010AE9
:1046E00080ED090A029890ED020A90ED0F1A20EE73
:1046F000010A80ED0A0A0298416B81630298016BFE
:104700004163029890ED0F0A90ED101A90ED112A76
:1047100031EE011A30EE410A30EE020A80ED0C0A49
:10472000029890ED030A90ED0C1A20EE010A80ED3C
:104730000B0A029890ED080A90ED091A90ED0A2AEA
:1047400090ED0B3A31EE021A31EE031A30EE010A07
:1047500080ED080A029890ED040A90ED081AB4EE74
:10476000401AF1EE10FA04DDFFE7029801690162D8
:1047700015E0029890ED040A90ED081AB1EE400A97
:10478000B4EE401AF1EE10FA08DAFFE7029890ED65
:10479000040AB1EE400A80ED080AFFE7FFE7FFE7F1
:1047A000FFE70298006A0390FFE79DED030A04B05B
:1047B0007047000085B00B4604908DF80F100292F0
:1047C0008DED010ACDED000A0498002804D0FFE722
:1047D0000298002801D1FFE72BE09DF80F00049913
:1047E000087002980068049948600298406804992B
:1047F0008860029880680499C860019804990861EB
:1048000000980499486104980021816304984163E9
:1048100004980163049801620498C162049881625B
:104820000498416204984164049801640498C16347
:10483000FFE705B070470000000000000000000026
:10484000EFF30980BFF36F8F154B1A681EF0100F3E
:1048500008BF20ED108A20E9F04F10602DE9090013
:104860004FF0500080F31188BFF34F8FBFF36F8F6D
:1048700003F010F84FF0000080F31188BDE8090044
:1048800019680868B0E8F04F1EF0100F08BFB0ECD0
:10489000108A80F30988BFF36F8F704700BF00BF95
:1048A0008805002070B58CB013468C468646ADF85E
:1048B0002E00ADF82C10ADF82A2040F20C10C2F2F8
:1048C00000004FF40071016000218160C16004228A
:1048D00002619DF82F2040F20414C2F200042270FD
:1048E0009DF82E2062709DF82B20A2709DF82A2042
:1048F000E27040F2CC12C2F2000209AD07901046FD
:10490000079E069131460592224604932B46CDF828
:104910000CC0CDF808E00194FBF762FE40F22411D0
:10492000C2F2000140F2FF120A60069A8A60CA6071
:1049300002230B619DF82D30DDF804C08CF80030A7
:104940009DF82C308CF8013008ABDDF814E00090B5
:1049500070466246FBF744FE0CB070BD83B0134650
:1049600002900191ADF8022040F2F040C2F2000046
:1049700001684A6942F040024A610068C16841F03A
:104980001001C16040F2B420C2F20000006801686A
:1049900021F001010160FFE740F2B420C2F2000003
:1049A00000680068C00700280AD0FFE740F2B42082
:1049B000C2F200000068016821F001010160EBE72C
:1049C00040F2B420C2F20000016844F60402C4F2CE
:1049D00000028A6002990268D1600199026811613F
:1049E000BDF802100268516001680A6842F4802232
:1049F0000A600068016841F00101016003B070477E
:104A000080B584B003900020029001F0B5F840F228
:104A10004060C2F2000040F25861C2F200014FF45F
:104A2000806200F09FFF44F6B411C2F2000101F56C
:104A300000724FF400730190084611461A4602F0C6
:104A400017FCFFE701F0FEFF02A8052101F064F961
:104A50000090F7E7000000000000000000000000E8
:104A6000074B19680868B0E8F04F80F30988BFF376
:104A70006F8F4FF0000080F31188704700BF00BFB8
:104A80008805002080B582B00190FFE7012001F089
:104A90002DF90090FAE7000080B582B04FF0500089
:104AA00080F31188BFF36F8FBFF34F8F009003F037
:104AB0002FF9002808D0FFE74EF60450CEF2000090
:104AC0004FF080510160FFE700200190019880F3D2
:104AD000118802B080BD000080B594B008A83021D4
:104AE000FBF7B8FB00200790069005900490039018
:104AF000FFE70020029043F64000C4F20200016884
:104B000041F080510160006800F0805002900298EE
:104B1000FFE7FFE70020019047F20000C4F2000029
:104B2000016841F480410160006800F48040019018
:104B30000198FFE7012008904FF48030099002208F
:104B40000E904FF480010F9106211091A821119130
:104B500012900420139008A8FDF746FD002803D00A
:104B6000FFE7FBF7A1FCFFE70F2003900220049072
:104B7000002005904FF4A05006904FF4805007900D
:104B800003A80521FDF736FB002803D0FFE7FBF75C
:104B90008BFCFFE714B080BD4EF68850CEF20000CB
:104BA000016841F4700101607047000080B540F277
:104BB0006440C2F20000FEF70BFA80BD83B00290A1
:104BC000019102980068009002980021C4F201014E
:104BD000884225D0FFE70298B0F1804F20D0FFE750
:104BE000029840F20041C4F20001884218D0FFE769
:104BF000029840F60001C4F20001884210D0FFE79D
:104C0000029840F60041C4F20001884208D0FFE754
:104C1000029840F20041C4F2010188420AD1FFE744
:104C2000009820F0700000900198406800990843B7
:104C30000090FFE702980021C4F20101884255D09C
:104C4000FFE70298B0F1804F50D0FFE7029840F2A2
:104C50000041C4F20001884248D0FFE7029840F6C4
:104C60000001C4F20001884240D0FFE7029840F6FC
:104C70000041C4F20001884238D0FFE7029840F2B8
:104C80000041C4F20101884230D0FFE7029844F2AB
:104C90000001C4F20101884228D0FFE7029844F2E3
:104CA0000041C4F20101884220D0FFE7029844F697
:104CB0000001C4F20101884218D0FFE7029841F6D2
:104CC0000001C4F20001884210D0FFE7029841F6CB
:104CD0000041C4F20001884208D0FFE7029842F286
:104CE0000001C4F2000188420AD1FFE7009820F4D5
:104CF000407000900198C068009908430090FFE759
:104D0000009820F0800001994969084300900098BC
:104D100002990860019880680299C8620198006849
:104D20000299886202980021C4F20101884208D0E9
:104D3000FFE7029840F20041C4F20101884205D128
:104D4000FFE70198006902990863FFE702980121D3
:104D5000416103B07047000084B00390029101925A
:104D6000029800F01F00012101FA00F00090009865
:104D700003990A6A22EA000008620198029901F088
:104D80001F01884003990A6A1043086204B0704703
:104D900085B0049003910498016A21F00101016239
:104DA0000498006A01900498406800900498806913
:104DB0000290029820F070000290029820F0030008
:104DC000029003980068029908430290019820F02D
:104DD00002000190039880680199084301900498AB
:104DE0000021C4F20101884208D0FFE7049840F294
:104DF0000041C4F2010188420ED1FFE7019820F082
:104E0000080001900398C068019908430190019837
:104E100020F004000190FFE704980021C4F2010192
:104E2000884208D0FFE7049840F20041C4F2010133
:104E3000884213D1FFE7009820F48070009000981A
:104E400020F4007000900398406900990843009096
:104E500003988069009908430090FFE7009804993F
:104E600048600298049988610398406804994863EF
:104E700001980499086205B07047000085B004905D
:104E800003910498016A21F0100101620498006AFC
:104E900001900498406800900498806902900298FC
:104EA00020F4E0400290029820F4407002900398B1
:104EB0000068029941EA00200290019820F0200049
:104EC000019003988068019941EA001001900498CC
:104ED0000021C4F20101884208D0FFE7049840F2A3
:104EE0000041C4F2010188420FD1FFE7019820F090
:104EF000800001900398C068019941EA0010019078
:104F0000019820F040000190FFE704980021C4F2CE
:104F10000101884208D0FFE7049840F20041C4F242
:104F20000101884215D1FFE7009820F480600090CD
:104F3000009820F40060009003984069009941EACD
:104F40008000009003988069009941EA80000090F9
:104F5000FFE70098049948600298049988610398D3
:104F600040680499886301980499086205B0704705
:104F700085B0049003910498016A21F48071016264
:104F80000498006A01900498406800900498C069F1
:104F90000290029820F070000290029820F0030026
:104FA000029003980068029908430290019820F447
:104FB0000070019003988068019941EA00200190F7
:104FC00004980021C4F20101884208D0FFE7049848
:104FD00040F20041C4F2010188420FD1FFE701987D
:104FE00020F4006001900398C068019941EA002014
:104FF0000190019820F480600190FFE7049800215F
:10500000C4F20101884208D0FFE7049840F2004151
:10501000C4F20101884215D1FFE7009820F48050C6
:105020000090009820F40050009003984069009987
:1050300041EA0010009003988069009941EA00104D
:105040000090FFE700980499486002980499C861AD
:10505000039840680499C86301980499086205B0F0
:105060007047000085B0049003910498016A21F410
:10507000805101620498006A019004984068009091
:105080000498C0690290029820F4E04002900298CF
:1050900020F44070029003980068029941EA0020D1
:1050A0000290019820F400500190039880680199C3
:1050B00041EA0030019004980021C4F201018842C5
:1050C00008D0FFE7049840F20041C4F20101884291
:1050D0000BD1FFE7009820F48040009003984069CE
:1050E000009941EA80100090FFE700980499486019
:1050F00002980499C861039840680499086401986B
:105100000499086205B0704780B582B0019001989B
:10511000806B009000980021C1850098C1840098A0
:10512000FEF7F2FA02B080BD84B00390FFE7FFE71C
:105130000398006850E8030F20F490700290FFE796
:1051400002980399096841E80302002AF0D1FFE7B9
:10515000FFE7FFE7FFE70398006850E8050F20F03E
:1051600001000190FFE701980399096841E80502F1
:10517000002AF0D1FFE7FFE70398006B012814D164
:10518000FFE7FFE7FFE70398006850E8030F20F010
:1051900010000090FFE700980399096841E80302B6
:1051A000002AF0D1FFE7FFE7FFE70398202180F80E
:1051B0003E1003980021016304B0704780B582B0AF
:1051C000019001980068C16821F04001C160019818
:1051D000202180F83D100198FEF7EAFE002002B081
:1051E00080BD000080B586B00490049890F83E0021
:1051F000222840F0A480FFE704988068B0F5805F23
:1052000016D1FFE704980069002811D1FFE70020BC
:1052100003900498806A02900498006840686FF3D5
:105220005F20029908800498816A0231816227E038
:105230000498806A03900020029004988068B0F57A
:10524000805F0AD0FFE70498806800280BD1FFE751
:1052500004980069002806D1FFE7049800684068B8
:105260000399087007E004980068406800F07F0028
:1052700003990870FFE70498816A01318162FFE7B2
:105280000498C18D0139C1850804002853D1FFE776
:1052900004980068C16821F02001C160049800688A
:1052A000C16821F48071C16004980068416921F0EF
:1052B000010141610498202180F83E100498006BA0
:1052C000012830D1FFE7049800210163FFE7FFE7E1
:1052D0000498006850E8030F20F010000190FFE7E9
:1052E00001980499096841E80302002AF0D1FFE718
:1052F000FFE7049800680068C00600280ED5FFE7A5
:10530000FFE700200090049800680068009004986F
:105310000068406800900098FFE7FFE70498818DDF
:10532000FEF7EAF903E00498FEF73EFEFFE70020EF
:105330008DF8170007E000208DF8170003E0022029
:105340008DF81700FFE79DF8170006B080BD00003C
:1053500080B588B0079007980068006920F4405035
:1053600007990A68C968084310610798816802694B
:105370004369C069114319430843069007980068C0
:10538000C06849F20C618843069908430799096887
:10539000C86007980068406920F4407007990A685F
:1053A0008969084350610798006841F20001C4F21E
:1053B0000101884209D0FFE70798006841F20041E7
:1053C000C4F20101884204D1FFE7FDF787F8059098
:1053D00003E0FDF771F80590FFE70798C069B0F5A5
:1053E000004F2FD1FFE705981921A0FB0101079A73
:1053F000136852684FEA420CD20F04926246DDF8FD
:1054000010C003936346FAF7DBFE48F21F51C5F262
:10541000EB11A0FB01235B094FEA031C4FF0640E64
:1054200003FB1E00322303EBC000A0FB0101F823A5
:1054300003EA51130CEB4303C1F342111944039BDC
:1054400099602EE005981921A0FB0101079A1368C5
:1054500052684FEA820C920F02926246DDF808C051
:1054600001936346FAF7ACFE48F21F51C5F2EB1107
:10547000A0FB01235B094FF0640C03FB1C004FF001
:10548000320C0CEB0010A0FB01014FF0F00C0CEA09
:10549000511C0CEB0313C1F343111944019B996098
:1054A000FFE708B080BD000083B00190019890F83C
:1054B0003D0021283CD1FFE701988068B0F5805F6E
:1054C00014D1FFE70198006900280FD1FFE7019888
:1054D000006A0090009800886FF35F2001990968C6
:1054E00048600198016A0231016208E00198016A8E
:1054F0004A1C02620878019909684860FFE7019830
:10550000C18C0139C184080400280DD1FFE701983E
:105510000068C16821F08001C16001980068C1681D
:1055200041F04001C160FFE700208DF80B0003E06F
:1055300002208DF80B00FFE79DF80B0003B07047C9
:1055400080B540F2AC40C2F20000FEF7E1F880BD49
:1055500080B582B040F2F040C2F2000000680068FE
:105560008006002810D5FFE7FFE70020019040F2F9
:10557000F040C2F2000001680968019100684068CB
:1055800001900198FFE785E044F60000C4F20000B6
:105590000068C00600287CD5FFE7FFE700200090E8
:1055A00040F2F040C2F20000016809680091006812
:1055B000406800900098FFE740F2B420C2F200007B
:1055C00000680068000300282FD4FFE740F2B420F1
:1055D000C2F2000001680A6822F001020A60016854
:1055E0004968C1F1240140F2E402C2F200021180D4
:1055F000016824234B6001680B6843F400230B60AF
:105600000068016841F001010160108812280BD187
:10561000FFE740F61330C2F2000040F22461C2F20C
:10562000000101F013FBFFE732E040F2B420C2F2C8
:10563000000001680A6822F001020A6001684968F6
:10564000C1F1240140F2E402C2F2000211800168BB
:1056500024234B6046F21001C4F202010B6823F4CC
:1056600000230B600068016841F0010101601088AF
:1056700012280CD1FFE740F61330C2F200002430AC
:1056800040F22461C2F2000101F0E0FAFFE7FFE717
:10569000FFE7FFE702B080BD80B582B041F2004075
:1056A000C4F201000068C006002840F18080FFE7D6
:1056B000FFE70020019040F23450C2F20000016880
:1056C000096801910068406801900198FFE740F285
:1056D0003450C2F20000806B0068006800030028AC
:1056E00031D4FFE740F23450C2F20000816B096808
:1056F0000A6822F001020A60816B09684968C1F5F5
:10570000007140F2E602C2F200021180816B09686A
:105710004FF400734B60816B09680B6843F40023FE
:105720000B60806B0068016841F001010160128824
:1057300040F24060C2F2000044F6B411C2F200012F
:1057400000F02CF932E040F23450C2F20000816BDC
:1057500009680A6822F001020A60816B09684968D9
:10576000C1F5007140F2E602C2F200021180816BC5
:1057700009684FF400734B60816B09680B6823F470
:1057800000230B60806B0068016841F0010101603B
:10579000128844F6B410C2F2000000F5007140F225
:1057A0004060C2F2000000F0F9F8FFE7FFE702B046
:1057B00080BD0000FFE7FEE781B001468DF80300E1
:1057C0009DF9030000280FD4FFE79DF9030000F0C6
:1057D0001F01012202FA01F140094EF20012CEF23D
:1057E000000242F82010FFE701B070474EF60C505F
:1057F000CEF200000068C0F30220704782B002467B
:105800008DF8070000919DF9070000280AD4FFE7F2
:10581000009800019DF907104EF20042CEF20002FE
:1058200088540BE0009800019DF8071001F00F016B
:105830004EF61452CEF200028854FFE702B07047D1
:1058400083B00290029800F0070000904EF60C50D2
:10585000CEF200000168019101994FF6FF0211405C
:1058600001910199009A41EA02210022C0F2FA5204
:10587000114301910199016003B0704780B594B064
:10588000012012900021109111900A910B910C911E
:105890000D910F910E9140F2A410C2F200000AAADD
:1058A0000990089111460792FAF756FF0999069058
:1058B0000846FBF757FE0221099A0590104604910D
:1058C000FAF764FE0E211391089A0E920F9140F29E
:1058D000CC11C2F2000103900846079B02911946C1
:1058E000FAF73AFF029901900846FBF73BFE02994E
:1058F000009008460499FAF749FE14B080BD0000F4
:1059000086B0029000208DF80300EFF31080039022
:1059100003980190EFF3108072B6049002984168EA
:105920000069884204D9FFE7029801680161FFE736
:105930000298006900788DF803000298016901312E
:10594000016102988168013181600298C168013962
:10595000C16001980590059880F310889DF80300B8
:1059600006B0704783B002900191009201980299AD
:10597000086001980099084401380299486000982D
:105980000299886002980021C1600198029A106112
:105990000198029A5061084603B0704780B58EB0F6
:1059A000089007910692EFF310800A900A980590EC
:1059B000EFF3108072B60B900798002801D1FFE733
:1059C00067E008988068002801D1FFE761E0089847
:1059D00041684069884204D9FFE70898016841613D
:1059E000FFE7069808998968884203DAFFE7069876
:1059F000019003E0089880680190FFE70198069005
:105A0000089841684069081A013003900398069984
:105A100088420EDBFFE706980390089840690799D3
:105A2000039AFAF7FEFB0399089A536919445161E6
:105A30001BE006980399401A02900898406907995C
:105A4000039AFAF7EEFB08990968079A039B1A4430
:105A5000029B0090084611461A46FAF7E2FB0899A5
:105A60000A68029B1A444A61FFE7069808998A6807
:105A7000101A886006980899CA681044C860069889
:105A8000049005980C900C9880F310880498099065
:105A900008E005980D900D9880F310884FF0FF30C6
:105AA0000990FFE709980EB080BD000081B000901A
:105AB0000098C06801B0704784B01346029001910D
:105AC000ADF802200298002805D1FFE74FF6FF70DD
:105AD000ADF80E0022E0FFE70198411E0191002879
